{"contracts/LendingPool.sol":{"LendingPool":{"abi":[{"inputs":[{"internalType":"address","name":"_globalLedger","type":"address"},{"internalType":"address","name":"_interestManager","type":"address"},{"internalType":"address","name":"_oracle","type":"address"},{"internalType":"TokenId","name":"_usdt","type":"address"},{"internalType":"TokenId","name":"_eth","type":"address"}],"stateMutability":"nonpayable","type":"constructor"},{"inputs":[{"internalType":"uint256","name":"amount","type":"uint256"},{"internalType":"TokenId","name":"borrowToken","type":"address"}],"name":"borrow","outputs":[],"stateMutability":"payable","type":"function"},{"inputs":[{"internalType":"uint256","name":"amount","type":"uint256"}],"name":"burnToken","outputs":[],"stateMutability":"nonpayable","type":"function"},{"inputs":[],"name":"deposit","outputs":[],"stateMutability":"payable","type":"function"},{"inputs":[],"name":"eth","outputs":[{"internalType":"TokenId","name":"","type":"address"}],"stateMutability":"view","type":"function"},{"inputs":[{"internalType":"bool","name":"success","type":"bool"},{"internalType":"bytes","name":"returnData","type":"bytes"},{"internalType":"bytes","name":"context","type":"bytes"}],"name":"finalizeLoan","outputs":[],"stateMutability":"payable","type":"function"},{"inputs":[],"name":"getOwnTokenBalance","outputs":[{"internalType":"uint256","name":"","type":"uint256"}],"stateMutability":"view","type":"function"},{"inputs":[{"internalType":"address","name":"account","type":"address"}],"name":"getTokenBalanceOf","outputs":[{"internalType":"uint256","name":"","type":"uint256"}],"stateMutability":"view","type":"function"},{"inputs":[],"name":"getTokenId","outputs":[{"internalType":"TokenId","name":"","type":"address"}],"stateMutability":"view","type":"function"},{"inputs":[],"name":"getTokenName","outputs":[{"internalType":"string","name":"","type":"string"}],"stateMutability":"view","type":"function"},{"inputs":[],"name":"getTokenTotalSupply","outputs":[{"internalType":"uint256","name":"","type":"uint256"}],"stateMutability":"view","type":"function"},{"inputs":[],"name":"globalLedger","outputs":[{"internalType":"address","name":"","type":"address"}],"stateMutability":"view","type":"function"},{"inputs":[{"internalType":"bool","name":"success","type":"bool"},{"internalType":"bytes","name":"returnData","type":"bytes"},{"internalType":"bytes","name":"context","type":"bytes"}],"name":"handleRepayment","outputs":[],"stateMutability":"payable","type":"function"},{"inputs":[],"name":"interestManager","outputs":[{"internalType":"address","name":"","type":"address"}],"stateMutability":"view","type":"function"},{"inputs":[{"internalType":"uint256","name":"amount","type":"uint256"}],"name":"mintToken","outputs":[],"stateMutability":"nonpayable","type":"function"},{"inputs":[],"name":"oracle","outputs":[{"internalType":"address","name":"","type":"address"}],"stateMutability":"view","type":"function"},{"inputs":[{"internalType":"bool","name":"success","type":"bool"},{"internalType":"bytes","name":"returnData","type":"bytes"},{"internalType":"bytes","name":"context","type":"bytes"}],"name":"processLoan","outputs":[],"stateMutability":"payable","type":"function"},{"inputs":[{"internalType":"bool","name":"success","type":"bool"},{"internalType":"bytes","name":"returnData","type":"bytes"},{"internalType":"bytes","name":"context","type":"bytes"}],"name":"processRepayment","outputs":[],"stateMutability":"payable","type":"function"},{"inputs":[{"internalType":"bool","name":"success","type":"bool"},{"internalType":"bytes","name":"returnData","type":"bytes"},{"internalType":"bytes","name":"context","type":"bytes"}],"name":"releaseCollateral","outputs":[],"stateMutability":"payable","type":"function"},{"inputs":[],"name":"repayLoan","outputs":[],"stateMutability":"payable","type":"function"},{"inputs":[{"internalType":"bool","name":"success","type":"bool"},{"internalType":"bytes","name":"returnData","type":"bytes"},{"internalType":"bytes","name":"context","type":"bytes"}],"name":"sendCollateral","outputs":[],"stateMutability":"payable","type":"function"},{"inputs":[{"internalType":"address","name":"to","type":"address"},{"internalType":"TokenId","name":"tokenId","type":"address"},{"internalType":"uint256","name":"amount","type":"uint256"}],"name":"sendToken","outputs":[],"stateMutability":"nonpayable","type":"function"},{"inputs":[{"internalType":"string","name":"name","type":"string"}],"name":"setTokenName","outputs":[],"stateMutability":"nonpayable","type":"function"},{"inputs":[],"name":"usdt","outputs":[{"internalType":"TokenId","name":"","type":"address"}],"stateMutability":"view","type":"function"}],"evm":{"bytecode":{"linkReferences":{},"object":"6080346100e657601f611b3338819003918201601f19168301916001600160401b038311848410176100eb5780849260a0946040528339810103126100e65761004781610101565b9061005460208201610101565b61006060408301610101565b90610079608061007260608601610101565b9401610101565b600280546001600160a01b03199081166001600160a01b0397881617909155600380548216938716939093179092556004805483169386169390931790925560058054821693851693909317909255600680549092169216919091179055604051611a1d90816101168239f35b600080fd5b634e487b7160e01b600052604160045260246000fd5b51906001600160a01b03821682036100e65756fe608080604052600436101561001357600080fd5b60003560e01c908163010a38f51461110c5750806310401774146110e35780632f48ab7d146110ba5780632fdcfbd21461108257806346fe543114610f395780634761a3ee14610e5e5780634b3fd14814610cf557806357df844b14610cd7578063659dbf9914610b845780637b47ec1a14610a625780637dc0d1d014610a395780638389454814610a14578063862b092b146109405780638c7c9e0c14610917578063a4f29aad1461077a578063c513a8f514610618578063c59e1c8f14610520578063c634d0321461045c578063d0e30db0146103d8578063d19b9b75146103b3578063ee065e111461038a578063eeaf7d8e1461024b5763f966ade71461011c57600080fd5b6000366003190112610246576101ea6020610135611842565b8161016360405192637453ed4760e11b838501523360248501526024845261015e60448561116d565b611438565b510151906040519163659dbf9960e01b8484015233602484015260448301526044825261019160648361116d565b60025460405163100897a560e21b81526001600160a01b03909116600482015260a0602482015293849283926101fc9290916101cf60a486016116b8565b62a7d8c0604487015285810360031901606487015290611258565b83810360031901608485015290611258565b0381600060d85af1801561023a5761021057005b6102319060203d602011610233575b610229818361116d565b810190611468565b005b503d61021f565b6040513d6000823e3d90fd5b600080fd5b61025436611200565b909115610345578060208061026e93518301019101611373565b84516020868101966001600160a01b03909616959394939182019190910312610246576102af6102b69260646102a861023198518361131f565b049061145b565b11156113a3565b6040516306eb746160e51b6020820152602481018390526001600160a01b03821660448201526000606480830191909152815291610334906102f960848561116d565b60405163c513a8f560e01b60208201526001600160a01b0391821660248201529216604483015281606481015b03601f19810183528261116d565b6002546001600160a01b031661174a565b60405162461bcd60e51b815260206004820152601960248201527f496e74657265737420726174652063616c6c206661696c6564000000000000006044820152606490fd5b34610246576000366003190112610246576003546040516001600160a01b039091168152602090f35b346102465760003660031901126102465760206103d030306117d3565b604051908152f35b6000366003190112610246576102316103ef611842565b61044960206104116001600160a01b0361040885611438565b51511693611438565b51015160405163e859930760e01b60208201523360248201526001600160a01b03909316604484015260648301528160848101610326565b60025430906001600160a01b031661194d565b346102465760203660031901126102465760043561048161047b611480565b15611299565b604051632cbbbfe160e11b81526004810182905260016024820152602081604481600060d05af190811561023a57600091610501575b50156104ce576104c99060005461145b565b600055005b60405162461bcd60e51b815260206004820152600b60248201526a135a5b9d0819985a5b195960aa1b6044820152606490fd5b61051a915060203d60201161023357610229818361116d565b826104b7565b61052936611200565b9091156105d35761054481602080809451830101910161141e565b919092818151818301938491600094010103126105d057505190811561058b576102319261057d8361057684306117d3565b10156113a3565b6001600160a01b031661157d565b60405162461bcd60e51b815260206004820152601860248201527f4e6f20636f6c6c61746572616c20746f2072656c6561736500000000000000006044820152606490fd5b80fd5b60405162461bcd60e51b815260206004820152601d60248201527f4661696c656420746f20726574726965766520636f6c6c61746572616c0000006044820152606490fd5b61062136611200565b9190501561073e5760206106408282806101ea9551830101910161141e565b6005546001600160a01b03928316929081169116810361073857506006546001600160a01b0316905b60405163c35082a960e01b848201526001600160a01b03828116602483015283166044808301919091528152906106df906106a560648461116d565b60405163c59e1c8f60e01b868201526001600160a01b0391821660248201529316604484015282606481015b03601f19810184528361116d565b60025460405163100897a560e21b81526001600160a01b03909116600482015260a0602482015293849283926101fc92909161071d60a486016116b8565b62055730604487015285810360031901606487015290611258565b90610669565b60405162461bcd60e51b8152602060048201526014602482015273131bd85b8818db19585c9a5b99c819985a5b195960621b6044820152606490fd5b346102465760203660031901126102465760043567ffffffffffffffff81116102465736602382011215610246576107bc9036906024816004013591016111ab565b6107c761047b611480565b805167ffffffffffffffff8111610901576107e36001546113e4565b601f8111610894575b50602091601f82116001146108285791819260009261081d575b5050600019600383901b1c1916600191821b179055005b015190508280610806565b601f1982169260016000526000805160206119c88339815191529160005b85811061087c57508360019510610863575b505050811b01600155005b015160001960f88460031b161c19169055828080610858565b91926020600181928685015181550194019201610846565b6001600052601f820160051c6000805160206119c88339815191520190602083106108eb575b601f0160051c6000805160206119c883398151915201905b8181106108df57506107ec565b600081556001016108d2565b6000805160206119c883398151915291506108ba565b634e487b7160e01b600052604160045260246000fd5b34610246576000366003190112610246576006546040516001600160a01b039091168152602090f35b34610246576000366003190112610246576040516000600154610962816113e4565b80845290600181169081156109f057506001146109a2575b61099e8361098a8185038261116d565b604051918291602083526020830190611258565b0390f35b91905060016000526000805160206119c8833981519152916000905b8082106109d65750909150810160200161098a61097a565b9192600181602092548385880101520191019092916109be565b60ff191660208086019190915291151560051b8401909101915061098a905061097a565b346102465760203660031901126102465760206103d0610a32611125565b30906117d3565b34610246576000366003190112610246576004546040516001600160a01b039091168152602090f35b3461024657602036600319011261024657600435610a8161047b611480565b8060005410610b3f57604051632cbbbfe160e11b815281600482015260006024820152602081604481600060d05af190811561023a57600091610b20575b5015610aed57600054908103908111610ad757600055005b634e487b7160e01b600052601160045260246000fd5b60405162461bcd60e51b815260206004820152600b60248201526a109d5c9b8819985a5b195960aa1b6044820152606490fd5b610b39915060203d60201161023357610229818361116d565b82610abf565b60405162461bcd60e51b815260206004820152601e60248201527f4275726e206661696c65643a206e6f7420656e6f75676820746f6b656e7300006044820152606490fd5b610b99610b9036611200565b91929092611332565b604081805181010312610246576040610bb46020830161130b565b9101519160408180518101031261024657610bd660406020830151920161130b565b8115610ca157610c486020936106d16101ea966040519463292bdab360e11b8887015260048652610c0860248761116d565b604051637757bec760e11b898201526001600160a01b039485166024820152604481019790975290921660648601526084850191909152839060a4820190565b60035460405163100897a560e21b81526001600160a01b03909116600482015260a0602482015293849283926101fc929091610c8660a486016116b8565b627a1200604487015285810360031901606487015290611258565b60405162461bcd60e51b815260206004820152600e60248201526d27379030b1ba34bb32903637b0b760911b6044820152606490fd5b34610246576000366003190112610246576020600054604051908152f35b604036600319011261024657600435610d0c61113b565b6005546001600160a01b038281169116818114939190848015610e4a575b15610e15576101ea94610d4384610576602097306117d3565b15610e1057506006546001600160a01b03165b6040516341976e0960e01b858201526024808201849052815291610d7b60448461116d565b6040516346fe543160e01b86820152336024820152604481019490945260648401526001600160a01b03166084808401919091528252610dbc60a48361116d565b6101fc60018060a01b036004541691604051958694859463100897a560e21b8652600486015260a06024860152610df560a486016116b8565b62895440604487015285810360031901606487015290611258565b610d56565b60405162461bcd60e51b815260206004820152600d60248201526c24b73b30b634b2103a37b5b2b760991b6044820152606490fd5b506006546001600160a01b03168214610d2a565b610e76610e85610e6d36611200565b91939093611332565b60208082518301019101611373565b90919260018060a01b03169360208151918180820193849201010312610246575110610ef4576040516306eb746160e51b60208201526001600160a01b03808516602483015282166044820152606481018390526102319390610eef906104498160848101610326565b61157d565b60405162461bcd60e51b815260206004820152601760248201527f496e73756666696369656e7420636f6c6c61746572616c0000000000000000006044820152606490fd5b610f4236611200565b91156110485760808280518101031261024657610f616020830161130b565b916040810151610f7f6080610f786060850161130b565b930161130b565b835190946001600160a01b0316936020808201928201919091031261024657610fa990518261131f565b607881029080820460781490151715610ad75760405163c35082a960e01b60208201526001600160a01b038581166024830152959095166044808701919091528552610231949360649361033493610326929190611007878961116d565b6040516323b0d1f760e11b60208201526001600160a01b039384166024820152604481019190915291166064820152939091046084840152829060a4820190565b60405162461bcd60e51b815260206004820152601260248201527113dc9858db194818d85b1b0819985a5b195960721b6044820152606490fd5b346102465760603660031901126102465761023161109e611125565b6110a661113b565b6110b161047b611480565b6044359161157d565b34610246576000366003190112610246576005546040516001600160a01b039091168152602090f35b34610246576000366003190112610246576002546040516001600160a01b039091168152602090f35b3461024657600036600319011261024657602090308152f35b600435906001600160a01b038216820361024657565b602435906001600160a01b038216820361024657565b6040810190811067ffffffffffffffff82111761090157604052565b90601f8019910116810190811067ffffffffffffffff82111761090157604052565b67ffffffffffffffff811161090157601f01601f191660200190565b9291926111b78261118f565b916111c5604051938461116d565b829481845281830111610246578281602093846000960137010152565b9080601f83011215610246578160206111fd933591016111ab565b90565b6060600319820112610246576004358015158103610246579160243567ffffffffffffffff81116102465782611238916004016111e2565b916044359067ffffffffffffffff8211610246576111fd916004016111e2565b919082519283825260005b848110611284575050826000602080949584010152601f8019910116010190565b80602080928401015182828601015201611263565b156112a057565b60405162461bcd60e51b815260206004820152603a60248201527f547279696e6720746f2063616c6c2065787465726e616c2066756e6374696f6e60448201527f207769746820696e7465726e616c207472616e73616374696f6e0000000000006064820152608490fd5b51906001600160a01b038216820361024657565b81810292918115918404141715610ad757565b1561133957565b60405162461bcd60e51b815260206004820152601260248201527113195919d95c8818d85b1b0819985a5b195960721b6044820152606490fd5b9190826080910312610246576113888261130b565b91602081015191606061139d6040840161130b565b92015190565b156113aa57565b60405162461bcd60e51b8152602060048201526012602482015271496e73756666696369656e742066756e647360701b6044820152606490fd5b90600182811c92168015611414575b60208310146113fe57565b634e487b7160e01b600052602260045260246000fd5b91607f16916113f3565b9190826040910312610246576111fd6020610f788461130b565b8051156114455760200190565b634e487b7160e01b600052603260045260246000fd5b91908201809211610ad757565b90816020910312610246575180151581036102465790565b600080606051608060ff5afa3d15611575573d9061149d8261118f565b916114ab604051938461116d565b82523d6000602084013e5b15611531578051156114d557806020806111fd93518301019101611468565b60405162461bcd60e51b815260206004820152602e60248201527f2749535f494e5445524e414c5f5452414e53414354494f4e272072657475726e60448201526d7320696e76616c6964206461746160901b6064820152608490fd5b606460405162461bcd60e51b815260206004820152602060248201527f507265636f6d70696c656420636f6e74726163742063616c6c206661696c65646044820152fd5b6060906114b6565b929192604090815192611590838561116d565b60018452601f19830160005b8181106116945750506116479394958351916115b783611151565b6001600160a01b0316825260208201526115d085611438565b526115da84611438565b50602093849161165984516115ef858261116d565b600081528551968794859463f697565360e01b8652600060048701526000602487015260018060a01b031660448601526000606486015260006084860152600060a486015261010060c4860152610104850190611701565b8381036003190160e485015290611258565b0381600060fd5af190811561168a5750611671575050565b8161168792903d1061023357610229818361116d565b50565b513d6000823e3d90fd5b60209085516116a281611151565b600081526000838201528282890101520161159c565b602060605191828152019060809060005b8181106116d65750505090565b825180516001600160a01b0316855260209081015181860152604090940193909201916001016116c9565b906020808351928381520192019060005b81811061171f5750505090565b825180516001600160a01b031685526020908101518186015260409094019390920191600101611712565b60405163100897a560e21b81526001600160a01b03909116600482015260a0602482015291602091839182916117a691906101ea9061178b60a486016116b8565b625b8d80604487015285810360031901606487015290611258565b0381600060d85af1801561023a576117bb5750565b6116879060203d60201161023357610229818361116d565b604051639614ddaf60e01b81526001600160a01b0392831660048201529116602482015260208160448160d15afa90811561023a57600091611813575090565b90506020813d60201161183a575b8161182e6020938361116d565b81010312610246575190565b3d9150611821565b6040516304016d8760e51b81526000816004818360d35af190811561023a5760009161186c575090565b903d8082843e61187c818461116d565b8201916020818403126119495780519067ffffffffffffffff8211611931570182601f820112156119495780519167ffffffffffffffff83116119355760208360051b01936118ce604051958661116d565b83855260208086019460061b8401019281841161193157602001935b8385106118f957505050505090565b604085830312611931576020604091825161191381611151565b61191c8861130b565b815282880151838201528152019401936118ea565b8280fd5b634e487b7160e01b81526041600452602490fd5b5080fd5b60405163f697565360e01b8152600060048201819052602482018190526001600160a01b0392831660448301526064820181905291909216608483015260a482015261010060c482015290602090829081906119b29061164761010484016060611701565b0381600060fd5af1801561023a576117bb575056feb10e2d527612073b26eecdfd717e6a320cf44b4afac2b0732d9fcbe2b7fa0cf6a26469706673582212206e36dba23ecf66f2ce59952299d0ac99daba3d796e3442aad0ec843c3401189e64736f6c634300081c0033","opcodes":"PUSH1 0x80 CALLVALUE PUSH2 0xE6 JUMPI PUSH1 0x1F PUSH2 0x1B33 CODESIZE DUP2 SWAP1 SUB SWAP2 DUP3 ADD PUSH1 0x1F NOT AND DUP4 ADD SWAP2 PUSH1 0x1 PUSH1 0x1 PUSH1 0x40 SHL SUB DUP4 GT DUP5 DUP5 LT OR PUSH2 0xEB JUMPI DUP1 DUP5 SWAP3 PUSH1 0xA0 SWAP5 PUSH1 0x40 MSTORE DUP4 CODECOPY DUP2 ADD SUB SLT PUSH2 0xE6 JUMPI PUSH2 0x47 DUP2 PUSH2 0x101 JUMP JUMPDEST SWAP1 PUSH2 0x54 PUSH1 0x20 DUP3 ADD PUSH2 0x101 JUMP JUMPDEST PUSH2 0x60 PUSH1 0x40 DUP4 ADD PUSH2 0x101 JUMP JUMPDEST SWAP1 PUSH2 0x79 PUSH1 0x80 PUSH2 0x72 PUSH1 0x60 DUP7 ADD PUSH2 0x101 JUMP JUMPDEST SWAP5 ADD PUSH2 0x101 JUMP JUMPDEST PUSH1 0x2 DUP1 SLOAD PUSH1 0x1 PUSH1 0x1 PUSH1 0xA0 SHL SUB NOT SWAP1 DUP2 AND PUSH1 0x1 PUSH1 0x1 PUSH1 0xA0 SHL SUB SWAP8 DUP9 AND OR SWAP1 SWAP2 SSTORE PUSH1 0x3 DUP1 SLOAD DUP3 AND SWAP4 DUP8 AND SWAP4 SWAP1 SWAP4 OR SWAP1 SWAP3 SSTORE PUSH1 0x4 DUP1 SLOAD DUP4 AND SWAP4 DUP7 AND SWAP4 SWAP1 SWAP4 OR SWAP1 SWAP3 SSTORE PUSH1 0x5 DUP1 SLOAD DUP3 AND SWAP4 DUP6 AND SWAP4 SWAP1 SWAP4 OR SWAP1 SWAP3 SSTORE PUSH1 0x6 DUP1 SLOAD SWAP1 SWAP3 AND SWAP3 AND SWAP2 SWAP1 SWAP2 OR SWAP1 SSTORE PUSH1 0x40 MLOAD PUSH2 0x1A1D SWAP1 DUP2 PUSH2 0x116 DUP3 CODECOPY RETURN JUMPDEST PUSH1 0x0 DUP1 REVERT JUMPDEST PUSH4 0x4E487B71 PUSH1 0xE0 SHL PUSH1 0x0 MSTORE PUSH1 0x41 PUSH1 0x4 MSTORE PUSH1 0x24 PUSH1 0x0 REVERT JUMPDEST MLOAD SWAP1 PUSH1 0x1 PUSH1 0x1 PUSH1 0xA0 SHL SUB DUP3 AND DUP3 SUB PUSH2 0xE6 JUMPI JUMP INVALID PUSH1 0x80 DUP1 PUSH1 0x40 MSTORE PUSH1 0x4 CALLDATASIZE LT ISZERO PUSH2 0x13 JUMPI PUSH1 0x0 DUP1 REVERT JUMPDEST PUSH1 0x0 CALLDATALOAD PUSH1 0xE0 SHR SWAP1 DUP2 PUSH4 0x10A38F5 EQ PUSH2 0x110C JUMPI POP DUP1 PUSH4 0x10401774 EQ PUSH2 0x10E3 JUMPI DUP1 PUSH4 0x2F48AB7D EQ PUSH2 0x10BA JUMPI DUP1 PUSH4 0x2FDCFBD2 EQ PUSH2 0x1082 JUMPI DUP1 PUSH4 0x46FE5431 EQ PUSH2 0xF39 JUMPI DUP1 PUSH4 0x4761A3EE EQ PUSH2 0xE5E JUMPI DUP1 PUSH4 0x4B3FD148 EQ PUSH2 0xCF5 JUMPI DUP1 PUSH4 0x57DF844B EQ PUSH2 0xCD7 JUMPI DUP1 PUSH4 0x659DBF99 EQ PUSH2 0xB84 JUMPI DUP1 PUSH4 0x7B47EC1A EQ PUSH2 0xA62 JUMPI DUP1 PUSH4 0x7DC0D1D0 EQ PUSH2 0xA39 JUMPI DUP1 PUSH4 0x83894548 EQ PUSH2 0xA14 JUMPI DUP1 PUSH4 0x862B092B EQ PUSH2 0x940 JUMPI DUP1 PUSH4 0x8C7C9E0C EQ PUSH2 0x917 JUMPI DUP1 PUSH4 0xA4F29AAD EQ PUSH2 0x77A JUMPI DUP1 PUSH4 0xC513A8F5 EQ PUSH2 0x618 JUMPI DUP1 PUSH4 0xC59E1C8F EQ PUSH2 0x520 JUMPI DUP1 PUSH4 0xC634D032 EQ PUSH2 0x45C JUMPI DUP1 PUSH4 0xD0E30DB0 EQ PUSH2 0x3D8 JUMPI DUP1 PUSH4 0xD19B9B75 EQ PUSH2 0x3B3 JUMPI DUP1 PUSH4 0xEE065E11 EQ PUSH2 0x38A JUMPI DUP1 PUSH4 0xEEAF7D8E EQ PUSH2 0x24B JUMPI PUSH4 0xF966ADE7 EQ PUSH2 0x11C JUMPI PUSH1 0x0 DUP1 REVERT JUMPDEST PUSH1 0x0 CALLDATASIZE PUSH1 0x3 NOT ADD SLT PUSH2 0x246 JUMPI PUSH2 0x1EA PUSH1 0x20 PUSH2 0x135 PUSH2 0x1842 JUMP JUMPDEST DUP2 PUSH2 0x163 PUSH1 0x40 MLOAD SWAP3 PUSH4 0x7453ED47 PUSH1 0xE1 SHL DUP4 DUP6 ADD MSTORE CALLER PUSH1 0x24 DUP6 ADD MSTORE PUSH1 0x24 DUP5 MSTORE PUSH2 0x15E PUSH1 0x44 DUP6 PUSH2 0x116D JUMP JUMPDEST PUSH2 0x1438 JUMP JUMPDEST MLOAD ADD MLOAD SWAP1 PUSH1 0x40 MLOAD SWAP2 PUSH4 0x659DBF99 PUSH1 0xE0 SHL DUP5 DUP5 ADD MSTORE CALLER PUSH1 0x24 DUP5 ADD MSTORE PUSH1 0x44 DUP4 ADD MSTORE PUSH1 0x44 DUP3 MSTORE PUSH2 0x191 PUSH1 0x64 DUP4 PUSH2 0x116D JUMP JUMPDEST PUSH1 0x2 SLOAD PUSH1 0x40 MLOAD PUSH4 0x100897A5 PUSH1 0xE2 SHL DUP2 MSTORE PUSH1 0x1 PUSH1 0x1 PUSH1 0xA0 SHL SUB SWAP1 SWAP2 AND PUSH1 0x4 DUP3 ADD MSTORE PUSH1 0xA0 PUSH1 0x24 DUP3 ADD MSTORE SWAP4 DUP5 SWAP3 DUP4 SWAP3 PUSH2 0x1FC SWAP3 SWAP1 SWAP2 PUSH2 0x1CF PUSH1 0xA4 DUP7 ADD PUSH2 0x16B8 JUMP JUMPDEST PUSH3 0xA7D8C0 PUSH1 0x44 DUP8 ADD MSTORE DUP6 DUP2 SUB PUSH1 0x3 NOT ADD PUSH1 0x64 DUP8 ADD MSTORE SWAP1 PUSH2 0x1258 JUMP JUMPDEST DUP4 DUP2 SUB PUSH1 0x3 NOT ADD PUSH1 0x84 DUP6 ADD MSTORE SWAP1 PUSH2 0x1258 JUMP JUMPDEST SUB DUP2 PUSH1 0x0 PUSH1 0xD8 GAS CALL DUP1 ISZERO PUSH2 0x23A JUMPI PUSH2 0x210 JUMPI STOP JUMPDEST PUSH2 0x231 SWAP1 PUSH1 0x20 RETURNDATASIZE PUSH1 0x20 GT PUSH2 0x233 JUMPI JUMPDEST PUSH2 0x229 DUP2 DUP4 PUSH2 0x116D JUMP JUMPDEST DUP2 ADD SWAP1 PUSH2 0x1468 JUMP JUMPDEST STOP JUMPDEST POP RETURNDATASIZE PUSH2 0x21F JUMP JUMPDEST PUSH1 0x40 MLOAD RETURNDATASIZE PUSH1 0x0 DUP3 RETURNDATACOPY RETURNDATASIZE SWAP1 REVERT JUMPDEST PUSH1 0x0 DUP1 REVERT JUMPDEST PUSH2 0x254 CALLDATASIZE PUSH2 0x1200 JUMP JUMPDEST SWAP1 SWAP2 ISZERO PUSH2 0x345 JUMPI DUP1 PUSH1 0x20 DUP1 PUSH2 0x26E SWAP4 MLOAD DUP4 ADD ADD SWAP2 ADD PUSH2 0x1373 JUMP JUMPDEST DUP5 MLOAD PUSH1 0x20 DUP7 DUP2 ADD SWAP7 PUSH1 0x1 PUSH1 0x1 PUSH1 0xA0 SHL SUB SWAP1 SWAP7 AND SWAP6 SWAP4 SWAP5 SWAP4 SWAP2 DUP3 ADD SWAP2 SWAP1 SWAP2 SUB SLT PUSH2 0x246 JUMPI PUSH2 0x2AF PUSH2 0x2B6 SWAP3 PUSH1 0x64 PUSH2 0x2A8 PUSH2 0x231 SWAP9 MLOAD DUP4 PUSH2 0x131F JUMP JUMPDEST DIV SWAP1 PUSH2 0x145B JUMP JUMPDEST GT ISZERO PUSH2 0x13A3 JUMP JUMPDEST PUSH1 0x40 MLOAD PUSH4 0x6EB7461 PUSH1 0xE5 SHL PUSH1 0x20 DUP3 ADD MSTORE PUSH1 0x24 DUP2 ADD DUP4 SWAP1 MSTORE PUSH1 0x1 PUSH1 0x1 PUSH1 0xA0 SHL SUB DUP3 AND PUSH1 0x44 DUP3 ADD MSTORE PUSH1 0x0 PUSH1 0x64 DUP1 DUP4 ADD SWAP2 SWAP1 SWAP2 MSTORE DUP2 MSTORE SWAP2 PUSH2 0x334 SWAP1 PUSH2 0x2F9 PUSH1 0x84 DUP6 PUSH2 0x116D JUMP JUMPDEST PUSH1 0x40 MLOAD PUSH4 0xC513A8F5 PUSH1 0xE0 SHL PUSH1 0x20 DUP3 ADD MSTORE PUSH1 0x1 PUSH1 0x1 PUSH1 0xA0 SHL SUB SWAP2 DUP3 AND PUSH1 0x24 DUP3 ADD MSTORE SWAP3 AND PUSH1 0x44 DUP4 ADD MSTORE DUP2 PUSH1 0x64 DUP2 ADD JUMPDEST SUB PUSH1 0x1F NOT DUP2 ADD DUP4 MSTORE DUP3 PUSH2 0x116D JUMP JUMPDEST PUSH1 0x2 SLOAD PUSH1 0x1 PUSH1 0x1 PUSH1 0xA0 SHL SUB AND PUSH2 0x174A JUMP JUMPDEST PUSH1 0x40 MLOAD PUSH3 0x461BCD PUSH1 0xE5 SHL DUP2 MSTORE PUSH1 0x20 PUSH1 0x4 DUP3 ADD MSTORE PUSH1 0x19 PUSH1 0x24 DUP3 ADD MSTORE PUSH32 0x496E74657265737420726174652063616C6C206661696C656400000000000000 PUSH1 0x44 DUP3 ADD MSTORE PUSH1 0x64 SWAP1 REVERT JUMPDEST CALLVALUE PUSH2 0x246 JUMPI PUSH1 0x0 CALLDATASIZE PUSH1 0x3 NOT ADD SLT PUSH2 0x246 JUMPI PUSH1 0x3 SLOAD PUSH1 0x40 MLOAD PUSH1 0x1 PUSH1 0x1 PUSH1 0xA0 SHL SUB SWAP1 SWAP2 AND DUP2 MSTORE PUSH1 0x20 SWAP1 RETURN JUMPDEST CALLVALUE PUSH2 0x246 JUMPI PUSH1 0x0 CALLDATASIZE PUSH1 0x3 NOT ADD SLT PUSH2 0x246 JUMPI PUSH1 0x20 PUSH2 0x3D0 ADDRESS ADDRESS PUSH2 0x17D3 JUMP JUMPDEST PUSH1 0x40 MLOAD SWAP1 DUP2 MSTORE RETURN JUMPDEST PUSH1 0x0 CALLDATASIZE PUSH1 0x3 NOT ADD SLT PUSH2 0x246 JUMPI PUSH2 0x231 PUSH2 0x3EF PUSH2 0x1842 JUMP JUMPDEST PUSH2 0x449 PUSH1 0x20 PUSH2 0x411 PUSH1 0x1 PUSH1 0x1 PUSH1 0xA0 SHL SUB PUSH2 0x408 DUP6 PUSH2 0x1438 JUMP JUMPDEST MLOAD MLOAD AND SWAP4 PUSH2 0x1438 JUMP JUMPDEST MLOAD ADD MLOAD PUSH1 0x40 MLOAD PUSH4 0xE8599307 PUSH1 0xE0 SHL PUSH1 0x20 DUP3 ADD MSTORE CALLER PUSH1 0x24 DUP3 ADD MSTORE PUSH1 0x1 PUSH1 0x1 PUSH1 0xA0 SHL SUB SWAP1 SWAP4 AND PUSH1 0x44 DUP5 ADD MSTORE PUSH1 0x64 DUP4 ADD MSTORE DUP2 PUSH1 0x84 DUP2 ADD PUSH2 0x326 JUMP JUMPDEST PUSH1 0x2 SLOAD ADDRESS SWAP1 PUSH1 0x1 PUSH1 0x1 PUSH1 0xA0 SHL SUB AND PUSH2 0x194D JUMP JUMPDEST CALLVALUE PUSH2 0x246 JUMPI PUSH1 0x20 CALLDATASIZE PUSH1 0x3 NOT ADD SLT PUSH2 0x246 JUMPI PUSH1 0x4 CALLDATALOAD PUSH2 0x481 PUSH2 0x47B PUSH2 0x1480 JUMP JUMPDEST ISZERO PUSH2 0x1299 JUMP JUMPDEST PUSH1 0x40 MLOAD PUSH4 0x2CBBBFE1 PUSH1 0xE1 SHL DUP2 MSTORE PUSH1 0x4 DUP2 ADD DUP3 SWAP1 MSTORE PUSH1 0x1 PUSH1 0x24 DUP3 ADD MSTORE PUSH1 0x20 DUP2 PUSH1 0x44 DUP2 PUSH1 0x0 PUSH1 0xD0 GAS CALL SWAP1 DUP2 ISZERO PUSH2 0x23A JUMPI PUSH1 0x0 SWAP2 PUSH2 0x501 JUMPI JUMPDEST POP ISZERO PUSH2 0x4CE JUMPI PUSH2 0x4C9 SWAP1 PUSH1 0x0 SLOAD PUSH2 0x145B JUMP JUMPDEST PUSH1 0x0 SSTORE STOP JUMPDEST PUSH1 0x40 MLOAD PUSH3 0x461BCD PUSH1 0xE5 SHL DUP2 MSTORE PUSH1 0x20 PUSH1 0x4 DUP3 ADD MSTORE PUSH1 0xB PUSH1 0x24 DUP3 ADD MSTORE PUSH11 0x135A5B9D0819985A5B1959 PUSH1 0xAA SHL PUSH1 0x44 DUP3 ADD MSTORE PUSH1 0x64 SWAP1 REVERT JUMPDEST PUSH2 0x51A SWAP2 POP PUSH1 0x20 RETURNDATASIZE PUSH1 0x20 GT PUSH2 0x233 JUMPI PUSH2 0x229 DUP2 DUP4 PUSH2 0x116D JUMP JUMPDEST DUP3 PUSH2 0x4B7 JUMP JUMPDEST PUSH2 0x529 CALLDATASIZE PUSH2 0x1200 JUMP JUMPDEST SWAP1 SWAP2 ISZERO PUSH2 0x5D3 JUMPI PUSH2 0x544 DUP2 PUSH1 0x20 DUP1 DUP1 SWAP5 MLOAD DUP4 ADD ADD SWAP2 ADD PUSH2 0x141E JUMP JUMPDEST SWAP2 SWAP1 SWAP3 DUP2 DUP2 MLOAD DUP2 DUP4 ADD SWAP4 DUP5 SWAP2 PUSH1 0x0 SWAP5 ADD ADD SUB SLT PUSH2 0x5D0 JUMPI POP MLOAD SWAP1 DUP2 ISZERO PUSH2 0x58B JUMPI PUSH2 0x231 SWAP3 PUSH2 0x57D DUP4 PUSH2 0x576 DUP5 ADDRESS PUSH2 0x17D3 JUMP JUMPDEST LT ISZERO PUSH2 0x13A3 JUMP JUMPDEST PUSH1 0x1 PUSH1 0x1 PUSH1 0xA0 SHL SUB AND PUSH2 0x157D JUMP JUMPDEST PUSH1 0x40 MLOAD PUSH3 0x461BCD PUSH1 0xE5 SHL DUP2 MSTORE PUSH1 0x20 PUSH1 0x4 DUP3 ADD MSTORE PUSH1 0x18 PUSH1 0x24 DUP3 ADD MSTORE PUSH32 0x4E6F20636F6C6C61746572616C20746F2072656C656173650000000000000000 PUSH1 0x44 DUP3 ADD MSTORE PUSH1 0x64 SWAP1 REVERT JUMPDEST DUP1 REVERT JUMPDEST PUSH1 0x40 MLOAD PUSH3 0x461BCD PUSH1 0xE5 SHL DUP2 MSTORE PUSH1 0x20 PUSH1 0x4 DUP3 ADD MSTORE PUSH1 0x1D PUSH1 0x24 DUP3 ADD MSTORE PUSH32 0x4661696C656420746F20726574726965766520636F6C6C61746572616C000000 PUSH1 0x44 DUP3 ADD MSTORE PUSH1 0x64 SWAP1 REVERT JUMPDEST PUSH2 0x621 CALLDATASIZE PUSH2 0x1200 JUMP JUMPDEST SWAP2 SWAP1 POP ISZERO PUSH2 0x73E JUMPI PUSH1 0x20 PUSH2 0x640 DUP3 DUP3 DUP1 PUSH2 0x1EA SWAP6 MLOAD DUP4 ADD ADD SWAP2 ADD PUSH2 0x141E JUMP JUMPDEST PUSH1 0x5 SLOAD PUSH1 0x1 PUSH1 0x1 PUSH1 0xA0 SHL SUB SWAP3 DUP4 AND SWAP3 SWAP1 DUP2 AND SWAP2 AND DUP2 SUB PUSH2 0x738 JUMPI POP PUSH1 0x6 SLOAD PUSH1 0x1 PUSH1 0x1 PUSH1 0xA0 SHL SUB AND SWAP1 JUMPDEST PUSH1 0x40 MLOAD PUSH4 0xC35082A9 PUSH1 0xE0 SHL DUP5 DUP3 ADD MSTORE PUSH1 0x1 PUSH1 0x1 PUSH1 0xA0 SHL SUB DUP3 DUP2 AND PUSH1 0x24 DUP4 ADD MSTORE DUP4 AND PUSH1 0x44 DUP1 DUP4 ADD SWAP2 SWAP1 SWAP2 MSTORE DUP2 MSTORE SWAP1 PUSH2 0x6DF SWAP1 PUSH2 0x6A5 PUSH1 0x64 DUP5 PUSH2 0x116D JUMP JUMPDEST PUSH1 0x40 MLOAD PUSH4 0xC59E1C8F PUSH1 0xE0 SHL DUP7 DUP3 ADD MSTORE PUSH1 0x1 PUSH1 0x1 PUSH1 0xA0 SHL SUB SWAP2 DUP3 AND PUSH1 0x24 DUP3 ADD MSTORE SWAP4 AND PUSH1 0x44 DUP5 ADD MSTORE DUP3 PUSH1 0x64 DUP2 ADD JUMPDEST SUB PUSH1 0x1F NOT DUP2 ADD DUP5 MSTORE DUP4 PUSH2 0x116D JUMP JUMPDEST PUSH1 0x2 SLOAD PUSH1 0x40 MLOAD PUSH4 0x100897A5 PUSH1 0xE2 SHL DUP2 MSTORE PUSH1 0x1 PUSH1 0x1 PUSH1 0xA0 SHL SUB SWAP1 SWAP2 AND PUSH1 0x4 DUP3 ADD MSTORE PUSH1 0xA0 PUSH1 0x24 DUP3 ADD MSTORE SWAP4 DUP5 SWAP3 DUP4 SWAP3 PUSH2 0x1FC SWAP3 SWAP1 SWAP2 PUSH2 0x71D PUSH1 0xA4 DUP7 ADD PUSH2 0x16B8 JUMP JUMPDEST PUSH3 0x55730 PUSH1 0x44 DUP8 ADD MSTORE DUP6 DUP2 SUB PUSH1 0x3 NOT ADD PUSH1 0x64 DUP8 ADD MSTORE SWAP1 PUSH2 0x1258 JUMP JUMPDEST SWAP1 PUSH2 0x669 JUMP JUMPDEST PUSH1 0x40 MLOAD PUSH3 0x461BCD PUSH1 0xE5 SHL DUP2 MSTORE PUSH1 0x20 PUSH1 0x4 DUP3 ADD MSTORE PUSH1 0x14 PUSH1 0x24 DUP3 ADD MSTORE PUSH20 0x131BD85B8818DB19585C9A5B99C819985A5B1959 PUSH1 0x62 SHL PUSH1 0x44 DUP3 ADD MSTORE PUSH1 0x64 SWAP1 REVERT JUMPDEST CALLVALUE PUSH2 0x246 JUMPI PUSH1 0x20 CALLDATASIZE PUSH1 0x3 NOT ADD SLT PUSH2 0x246 JUMPI PUSH1 0x4 CALLDATALOAD PUSH8 0xFFFFFFFFFFFFFFFF DUP2 GT PUSH2 0x246 JUMPI CALLDATASIZE PUSH1 0x23 DUP3 ADD SLT ISZERO PUSH2 0x246 JUMPI PUSH2 0x7BC SWAP1 CALLDATASIZE SWAP1 PUSH1 0x24 DUP2 PUSH1 0x4 ADD CALLDATALOAD SWAP2 ADD PUSH2 0x11AB JUMP JUMPDEST PUSH2 0x7C7 PUSH2 0x47B PUSH2 0x1480 JUMP JUMPDEST DUP1 MLOAD PUSH8 0xFFFFFFFFFFFFFFFF DUP2 GT PUSH2 0x901 JUMPI PUSH2 0x7E3 PUSH1 0x1 SLOAD PUSH2 0x13E4 JUMP JUMPDEST PUSH1 0x1F DUP2 GT PUSH2 0x894 JUMPI JUMPDEST POP PUSH1 0x20 SWAP2 PUSH1 0x1F DUP3 GT PUSH1 0x1 EQ PUSH2 0x828 JUMPI SWAP2 DUP2 SWAP3 PUSH1 0x0 SWAP3 PUSH2 0x81D JUMPI JUMPDEST POP POP PUSH1 0x0 NOT PUSH1 0x3 DUP4 SWAP1 SHL SHR NOT AND PUSH1 0x1 SWAP2 DUP3 SHL OR SWAP1 SSTORE STOP JUMPDEST ADD MLOAD SWAP1 POP DUP3 DUP1 PUSH2 0x806 JUMP JUMPDEST PUSH1 0x1F NOT DUP3 AND SWAP3 PUSH1 0x1 PUSH1 0x0 MSTORE PUSH1 0x0 DUP1 MLOAD PUSH1 0x20 PUSH2 0x19C8 DUP4 CODECOPY DUP2 MLOAD SWAP2 MSTORE SWAP2 PUSH1 0x0 JUMPDEST DUP6 DUP2 LT PUSH2 0x87C JUMPI POP DUP4 PUSH1 0x1 SWAP6 LT PUSH2 0x863 JUMPI JUMPDEST POP POP POP DUP2 SHL ADD PUSH1 0x1 SSTORE STOP JUMPDEST ADD MLOAD PUSH1 0x0 NOT PUSH1 0xF8 DUP5 PUSH1 0x3 SHL AND SHR NOT AND SWAP1 SSTORE DUP3 DUP1 DUP1 PUSH2 0x858 JUMP JUMPDEST SWAP2 SWAP3 PUSH1 0x20 PUSH1 0x1 DUP2 SWAP3 DUP7 DUP6 ADD MLOAD DUP2 SSTORE ADD SWAP5 ADD SWAP3 ADD PUSH2 0x846 JUMP JUMPDEST PUSH1 0x1 PUSH1 0x0 MSTORE PUSH1 0x1F DUP3 ADD PUSH1 0x5 SHR PUSH1 0x0 DUP1 MLOAD PUSH1 0x20 PUSH2 0x19C8 DUP4 CODECOPY DUP2 MLOAD SWAP2 MSTORE ADD SWAP1 PUSH1 0x20 DUP4 LT PUSH2 0x8EB JUMPI JUMPDEST PUSH1 0x1F ADD PUSH1 0x5 SHR PUSH1 0x0 DUP1 MLOAD PUSH1 0x20 PUSH2 0x19C8 DUP4 CODECOPY DUP2 MLOAD SWAP2 MSTORE ADD SWAP1 JUMPDEST DUP2 DUP2 LT PUSH2 0x8DF JUMPI POP PUSH2 0x7EC JUMP JUMPDEST PUSH1 0x0 DUP2 SSTORE PUSH1 0x1 ADD PUSH2 0x8D2 JUMP JUMPDEST PUSH1 0x0 DUP1 MLOAD PUSH1 0x20 PUSH2 0x19C8 DUP4 CODECOPY DUP2 MLOAD SWAP2 MSTORE SWAP2 POP PUSH2 0x8BA JUMP JUMPDEST PUSH4 0x4E487B71 PUSH1 0xE0 SHL PUSH1 0x0 MSTORE PUSH1 0x41 PUSH1 0x4 MSTORE PUSH1 0x24 PUSH1 0x0 REVERT JUMPDEST CALLVALUE PUSH2 0x246 JUMPI PUSH1 0x0 CALLDATASIZE PUSH1 0x3 NOT ADD SLT PUSH2 0x246 JUMPI PUSH1 0x6 SLOAD PUSH1 0x40 MLOAD PUSH1 0x1 PUSH1 0x1 PUSH1 0xA0 SHL SUB SWAP1 SWAP2 AND DUP2 MSTORE PUSH1 0x20 SWAP1 RETURN JUMPDEST CALLVALUE PUSH2 0x246 JUMPI PUSH1 0x0 CALLDATASIZE PUSH1 0x3 NOT ADD SLT PUSH2 0x246 JUMPI PUSH1 0x40 MLOAD PUSH1 0x0 PUSH1 0x1 SLOAD PUSH2 0x962 DUP2 PUSH2 0x13E4 JUMP JUMPDEST DUP1 DUP5 MSTORE SWAP1 PUSH1 0x1 DUP2 AND SWAP1 DUP2 ISZERO PUSH2 0x9F0 JUMPI POP PUSH1 0x1 EQ PUSH2 0x9A2 JUMPI JUMPDEST PUSH2 0x99E DUP4 PUSH2 0x98A DUP2 DUP6 SUB DUP3 PUSH2 0x116D JUMP JUMPDEST PUSH1 0x40 MLOAD SWAP2 DUP3 SWAP2 PUSH1 0x20 DUP4 MSTORE PUSH1 0x20 DUP4 ADD SWAP1 PUSH2 0x1258 JUMP JUMPDEST SUB SWAP1 RETURN JUMPDEST SWAP2 SWAP1 POP PUSH1 0x1 PUSH1 0x0 MSTORE PUSH1 0x0 DUP1 MLOAD PUSH1 0x20 PUSH2 0x19C8 DUP4 CODECOPY DUP2 MLOAD SWAP2 MSTORE SWAP2 PUSH1 0x0 SWAP1 JUMPDEST DUP1 DUP3 LT PUSH2 0x9D6 JUMPI POP SWAP1 SWAP2 POP DUP2 ADD PUSH1 0x20 ADD PUSH2 0x98A PUSH2 0x97A JUMP JUMPDEST SWAP2 SWAP3 PUSH1 0x1 DUP2 PUSH1 0x20 SWAP3 SLOAD DUP4 DUP6 DUP9 ADD ADD MSTORE ADD SWAP2 ADD SWAP1 SWAP3 SWAP2 PUSH2 0x9BE JUMP JUMPDEST PUSH1 0xFF NOT AND PUSH1 0x20 DUP1 DUP7 ADD SWAP2 SWAP1 SWAP2 MSTORE SWAP2 ISZERO ISZERO PUSH1 0x5 SHL DUP5 ADD SWAP1 SWAP2 ADD SWAP2 POP PUSH2 0x98A SWAP1 POP PUSH2 0x97A JUMP JUMPDEST CALLVALUE PUSH2 0x246 JUMPI PUSH1 0x20 CALLDATASIZE PUSH1 0x3 NOT ADD SLT PUSH2 0x246 JUMPI PUSH1 0x20 PUSH2 0x3D0 PUSH2 0xA32 PUSH2 0x1125 JUMP JUMPDEST ADDRESS SWAP1 PUSH2 0x17D3 JUMP JUMPDEST CALLVALUE PUSH2 0x246 JUMPI PUSH1 0x0 CALLDATASIZE PUSH1 0x3 NOT ADD SLT PUSH2 0x246 JUMPI PUSH1 0x4 SLOAD PUSH1 0x40 MLOAD PUSH1 0x1 PUSH1 0x1 PUSH1 0xA0 SHL SUB SWAP1 SWAP2 AND DUP2 MSTORE PUSH1 0x20 SWAP1 RETURN JUMPDEST CALLVALUE PUSH2 0x246 JUMPI PUSH1 0x20 CALLDATASIZE PUSH1 0x3 NOT ADD SLT PUSH2 0x246 JUMPI PUSH1 0x4 CALLDATALOAD PUSH2 0xA81 PUSH2 0x47B PUSH2 0x1480 JUMP JUMPDEST DUP1 PUSH1 0x0 SLOAD LT PUSH2 0xB3F JUMPI PUSH1 0x40 MLOAD PUSH4 0x2CBBBFE1 PUSH1 0xE1 SHL DUP2 MSTORE DUP2 PUSH1 0x4 DUP3 ADD MSTORE PUSH1 0x0 PUSH1 0x24 DUP3 ADD MSTORE PUSH1 0x20 DUP2 PUSH1 0x44 DUP2 PUSH1 0x0 PUSH1 0xD0 GAS CALL SWAP1 DUP2 ISZERO PUSH2 0x23A JUMPI PUSH1 0x0 SWAP2 PUSH2 0xB20 JUMPI JUMPDEST POP ISZERO PUSH2 0xAED JUMPI PUSH1 0x0 SLOAD SWAP1 DUP2 SUB SWAP1 DUP2 GT PUSH2 0xAD7 JUMPI PUSH1 0x0 SSTORE STOP JUMPDEST PUSH4 0x4E487B71 PUSH1 0xE0 SHL PUSH1 0x0 MSTORE PUSH1 0x11 PUSH1 0x4 MSTORE PUSH1 0x24 PUSH1 0x0 REVERT JUMPDEST PUSH1 0x40 MLOAD PUSH3 0x461BCD PUSH1 0xE5 SHL DUP2 MSTORE PUSH1 0x20 PUSH1 0x4 DUP3 ADD MSTORE PUSH1 0xB PUSH1 0x24 DUP3 ADD MSTORE PUSH11 0x109D5C9B8819985A5B1959 PUSH1 0xAA SHL PUSH1 0x44 DUP3 ADD MSTORE PUSH1 0x64 SWAP1 REVERT JUMPDEST PUSH2 0xB39 SWAP2 POP PUSH1 0x20 RETURNDATASIZE PUSH1 0x20 GT PUSH2 0x233 JUMPI PUSH2 0x229 DUP2 DUP4 PUSH2 0x116D JUMP JUMPDEST DUP3 PUSH2 0xABF JUMP JUMPDEST PUSH1 0x40 MLOAD PUSH3 0x461BCD PUSH1 0xE5 SHL DUP2 MSTORE PUSH1 0x20 PUSH1 0x4 DUP3 ADD MSTORE PUSH1 0x1E PUSH1 0x24 DUP3 ADD MSTORE PUSH32 0x4275726E206661696C65643A206E6F7420656E6F75676820746F6B656E730000 PUSH1 0x44 DUP3 ADD MSTORE PUSH1 0x64 SWAP1 REVERT JUMPDEST PUSH2 0xB99 PUSH2 0xB90 CALLDATASIZE PUSH2 0x1200 JUMP JUMPDEST SWAP2 SWAP3 SWAP1 SWAP3 PUSH2 0x1332 JUMP JUMPDEST PUSH1 0x40 DUP2 DUP1 MLOAD DUP2 ADD SUB SLT PUSH2 0x246 JUMPI PUSH1 0x40 PUSH2 0xBB4 PUSH1 0x20 DUP4 ADD PUSH2 0x130B JUMP JUMPDEST SWAP2 ADD MLOAD SWAP2 PUSH1 0x40 DUP2 DUP1 MLOAD DUP2 ADD SUB SLT PUSH2 0x246 JUMPI PUSH2 0xBD6 PUSH1 0x40 PUSH1 0x20 DUP4 ADD MLOAD SWAP3 ADD PUSH2 0x130B JUMP JUMPDEST DUP2 ISZERO PUSH2 0xCA1 JUMPI PUSH2 0xC48 PUSH1 0x20 SWAP4 PUSH2 0x6D1 PUSH2 0x1EA SWAP7 PUSH1 0x40 MLOAD SWAP5 PUSH4 0x292BDAB3 PUSH1 0xE1 SHL DUP9 DUP8 ADD MSTORE PUSH1 0x4 DUP7 MSTORE PUSH2 0xC08 PUSH1 0x24 DUP8 PUSH2 0x116D JUMP JUMPDEST PUSH1 0x40 MLOAD PUSH4 0x7757BEC7 PUSH1 0xE1 SHL DUP10 DUP3 ADD MSTORE PUSH1 0x1 PUSH1 0x1 PUSH1 0xA0 SHL SUB SWAP5 DUP6 AND PUSH1 0x24 DUP3 ADD MSTORE PUSH1 0x44 DUP2 ADD SWAP8 SWAP1 SWAP8 MSTORE SWAP1 SWAP3 AND PUSH1 0x64 DUP7 ADD MSTORE PUSH1 0x84 DUP6 ADD SWAP2 SWAP1 SWAP2 MSTORE DUP4 SWAP1 PUSH1 0xA4 DUP3 ADD SWAP1 JUMP JUMPDEST PUSH1 0x3 SLOAD PUSH1 0x40 MLOAD PUSH4 0x100897A5 PUSH1 0xE2 SHL DUP2 MSTORE PUSH1 0x1 PUSH1 0x1 PUSH1 0xA0 SHL SUB SWAP1 SWAP2 AND PUSH1 0x4 DUP3 ADD MSTORE PUSH1 0xA0 PUSH1 0x24 DUP3 ADD MSTORE SWAP4 DUP5 SWAP3 DUP4 SWAP3 PUSH2 0x1FC SWAP3 SWAP1 SWAP2 PUSH2 0xC86 PUSH1 0xA4 DUP7 ADD PUSH2 0x16B8 JUMP JUMPDEST PUSH3 0x7A1200 PUSH1 0x44 DUP8 ADD MSTORE DUP6 DUP2 SUB PUSH1 0x3 NOT ADD PUSH1 0x64 DUP8 ADD MSTORE SWAP1 PUSH2 0x1258 JUMP JUMPDEST PUSH1 0x40 MLOAD PUSH3 0x461BCD PUSH1 0xE5 SHL DUP2 MSTORE PUSH1 0x20 PUSH1 0x4 DUP3 ADD MSTORE PUSH1 0xE PUSH1 0x24 DUP3 ADD MSTORE PUSH14 0x27379030B1BA34BB32903637B0B7 PUSH1 0x91 SHL PUSH1 0x44 DUP3 ADD MSTORE PUSH1 0x64 SWAP1 REVERT JUMPDEST CALLVALUE PUSH2 0x246 JUMPI PUSH1 0x0 CALLDATASIZE PUSH1 0x3 NOT ADD SLT PUSH2 0x246 JUMPI PUSH1 0x20 PUSH1 0x0 SLOAD PUSH1 0x40 MLOAD SWAP1 DUP2 MSTORE RETURN JUMPDEST PUSH1 0x40 CALLDATASIZE PUSH1 0x3 NOT ADD SLT PUSH2 0x246 JUMPI PUSH1 0x4 CALLDATALOAD PUSH2 0xD0C PUSH2 0x113B JUMP JUMPDEST PUSH1 0x5 SLOAD PUSH1 0x1 PUSH1 0x1 PUSH1 0xA0 SHL SUB DUP3 DUP2 AND SWAP2 AND DUP2 DUP2 EQ SWAP4 SWAP2 SWAP1 DUP5 DUP1 ISZERO PUSH2 0xE4A JUMPI JUMPDEST ISZERO PUSH2 0xE15 JUMPI PUSH2 0x1EA SWAP5 PUSH2 0xD43 DUP5 PUSH2 0x576 PUSH1 0x20 SWAP8 ADDRESS PUSH2 0x17D3 JUMP JUMPDEST ISZERO PUSH2 0xE10 JUMPI POP PUSH1 0x6 SLOAD PUSH1 0x1 PUSH1 0x1 PUSH1 0xA0 SHL SUB AND JUMPDEST PUSH1 0x40 MLOAD PUSH4 0x41976E09 PUSH1 0xE0 SHL DUP6 DUP3 ADD MSTORE PUSH1 0x24 DUP1 DUP3 ADD DUP5 SWAP1 MSTORE DUP2 MSTORE SWAP2 PUSH2 0xD7B PUSH1 0x44 DUP5 PUSH2 0x116D JUMP JUMPDEST PUSH1 0x40 MLOAD PUSH4 0x46FE5431 PUSH1 0xE0 SHL DUP7 DUP3 ADD MSTORE CALLER PUSH1 0x24 DUP3 ADD MSTORE PUSH1 0x44 DUP2 ADD SWAP5 SWAP1 SWAP5 MSTORE PUSH1 0x64 DUP5 ADD MSTORE PUSH1 0x1 PUSH1 0x1 PUSH1 0xA0 SHL SUB AND PUSH1 0x84 DUP1 DUP5 ADD SWAP2 SWAP1 SWAP2 MSTORE DUP3 MSTORE PUSH2 0xDBC PUSH1 0xA4 DUP4 PUSH2 0x116D JUMP JUMPDEST PUSH2 0x1FC PUSH1 0x1 DUP1 PUSH1 0xA0 SHL SUB PUSH1 0x4 SLOAD AND SWAP2 PUSH1 0x40 MLOAD SWAP6 DUP7 SWAP5 DUP6 SWAP5 PUSH4 0x100897A5 PUSH1 0xE2 SHL DUP7 MSTORE PUSH1 0x4 DUP7 ADD MSTORE PUSH1 0xA0 PUSH1 0x24 DUP7 ADD MSTORE PUSH2 0xDF5 PUSH1 0xA4 DUP7 ADD PUSH2 0x16B8 JUMP JUMPDEST PUSH3 0x895440 PUSH1 0x44 DUP8 ADD MSTORE DUP6 DUP2 SUB PUSH1 0x3 NOT ADD PUSH1 0x64 DUP8 ADD MSTORE SWAP1 PUSH2 0x1258 JUMP JUMPDEST PUSH2 0xD56 JUMP JUMPDEST PUSH1 0x40 MLOAD PUSH3 0x461BCD PUSH1 0xE5 SHL DUP2 MSTORE PUSH1 0x20 PUSH1 0x4 DUP3 ADD MSTORE PUSH1 0xD PUSH1 0x24 DUP3 ADD MSTORE PUSH13 0x24B73B30B634B2103A37B5B2B7 PUSH1 0x99 SHL PUSH1 0x44 DUP3 ADD MSTORE PUSH1 0x64 SWAP1 REVERT JUMPDEST POP PUSH1 0x6 SLOAD PUSH1 0x1 PUSH1 0x1 PUSH1 0xA0 SHL SUB AND DUP3 EQ PUSH2 0xD2A JUMP JUMPDEST PUSH2 0xE76 PUSH2 0xE85 PUSH2 0xE6D CALLDATASIZE PUSH2 0x1200 JUMP JUMPDEST SWAP2 SWAP4 SWAP1 SWAP4 PUSH2 0x1332 JUMP JUMPDEST PUSH1 0x20 DUP1 DUP3 MLOAD DUP4 ADD ADD SWAP2 ADD PUSH2 0x1373 JUMP JUMPDEST SWAP1 SWAP2 SWAP3 PUSH1 0x1 DUP1 PUSH1 0xA0 SHL SUB AND SWAP4 PUSH1 0x20 DUP2 MLOAD SWAP2 DUP2 DUP1 DUP3 ADD SWAP4 DUP5 SWAP3 ADD ADD SUB SLT PUSH2 0x246 JUMPI MLOAD LT PUSH2 0xEF4 JUMPI PUSH1 0x40 MLOAD PUSH4 0x6EB7461 PUSH1 0xE5 SHL PUSH1 0x20 DUP3 ADD MSTORE PUSH1 0x1 PUSH1 0x1 PUSH1 0xA0 SHL SUB DUP1 DUP6 AND PUSH1 0x24 DUP4 ADD MSTORE DUP3 AND PUSH1 0x44 DUP3 ADD MSTORE PUSH1 0x64 DUP2 ADD DUP4 SWAP1 MSTORE PUSH2 0x231 SWAP4 SWAP1 PUSH2 0xEEF SWAP1 PUSH2 0x449 DUP2 PUSH1 0x84 DUP2 ADD PUSH2 0x326 JUMP JUMPDEST PUSH2 0x157D JUMP JUMPDEST PUSH1 0x40 MLOAD PUSH3 0x461BCD PUSH1 0xE5 SHL DUP2 MSTORE PUSH1 0x20 PUSH1 0x4 DUP3 ADD MSTORE PUSH1 0x17 PUSH1 0x24 DUP3 ADD MSTORE PUSH32 0x496E73756666696369656E7420636F6C6C61746572616C000000000000000000 PUSH1 0x44 DUP3 ADD MSTORE PUSH1 0x64 SWAP1 REVERT JUMPDEST PUSH2 0xF42 CALLDATASIZE PUSH2 0x1200 JUMP JUMPDEST SWAP2 ISZERO PUSH2 0x1048 JUMPI PUSH1 0x80 DUP3 DUP1 MLOAD DUP2 ADD SUB SLT PUSH2 0x246 JUMPI PUSH2 0xF61 PUSH1 0x20 DUP4 ADD PUSH2 0x130B JUMP JUMPDEST SWAP2 PUSH1 0x40 DUP2 ADD MLOAD PUSH2 0xF7F PUSH1 0x80 PUSH2 0xF78 PUSH1 0x60 DUP6 ADD PUSH2 0x130B JUMP JUMPDEST SWAP4 ADD PUSH2 0x130B JUMP JUMPDEST DUP4 MLOAD SWAP1 SWAP5 PUSH1 0x1 PUSH1 0x1 PUSH1 0xA0 SHL SUB AND SWAP4 PUSH1 0x20 DUP1 DUP3 ADD SWAP3 DUP3 ADD SWAP2 SWAP1 SWAP2 SUB SLT PUSH2 0x246 JUMPI PUSH2 0xFA9 SWAP1 MLOAD DUP3 PUSH2 0x131F JUMP JUMPDEST PUSH1 0x78 DUP2 MUL SWAP1 DUP1 DUP3 DIV PUSH1 0x78 EQ SWAP1 ISZERO OR ISZERO PUSH2 0xAD7 JUMPI PUSH1 0x40 MLOAD PUSH4 0xC35082A9 PUSH1 0xE0 SHL PUSH1 0x20 DUP3 ADD MSTORE PUSH1 0x1 PUSH1 0x1 PUSH1 0xA0 SHL SUB DUP6 DUP2 AND PUSH1 0x24 DUP4 ADD MSTORE SWAP6 SWAP1 SWAP6 AND PUSH1 0x44 DUP1 DUP8 ADD SWAP2 SWAP1 SWAP2 MSTORE DUP6 MSTORE PUSH2 0x231 SWAP5 SWAP4 PUSH1 0x64 SWAP4 PUSH2 0x334 SWAP4 PUSH2 0x326 SWAP3 SWAP2 SWAP1 PUSH2 0x1007 DUP8 DUP10 PUSH2 0x116D JUMP JUMPDEST PUSH1 0x40 MLOAD PUSH4 0x23B0D1F7 PUSH1 0xE1 SHL PUSH1 0x20 DUP3 ADD MSTORE PUSH1 0x1 PUSH1 0x1 PUSH1 0xA0 SHL SUB SWAP4 DUP5 AND PUSH1 0x24 DUP3 ADD MSTORE PUSH1 0x44 DUP2 ADD SWAP2 SWAP1 SWAP2 MSTORE SWAP2 AND PUSH1 0x64 DUP3 ADD MSTORE SWAP4 SWAP1 SWAP2 DIV PUSH1 0x84 DUP5 ADD MSTORE DUP3 SWAP1 PUSH1 0xA4 DUP3 ADD SWAP1 JUMP JUMPDEST PUSH1 0x40 MLOAD PUSH3 0x461BCD PUSH1 0xE5 SHL DUP2 MSTORE PUSH1 0x20 PUSH1 0x4 DUP3 ADD MSTORE PUSH1 0x12 PUSH1 0x24 DUP3 ADD MSTORE PUSH18 0x13DC9858DB194818D85B1B0819985A5B1959 PUSH1 0x72 SHL PUSH1 0x44 DUP3 ADD MSTORE PUSH1 0x64 SWAP1 REVERT JUMPDEST CALLVALUE PUSH2 0x246 JUMPI PUSH1 0x60 CALLDATASIZE PUSH1 0x3 NOT ADD SLT PUSH2 0x246 JUMPI PUSH2 0x231 PUSH2 0x109E PUSH2 0x1125 JUMP JUMPDEST PUSH2 0x10A6 PUSH2 0x113B JUMP JUMPDEST PUSH2 0x10B1 PUSH2 0x47B PUSH2 0x1480 JUMP JUMPDEST PUSH1 0x44 CALLDATALOAD SWAP2 PUSH2 0x157D JUMP JUMPDEST CALLVALUE PUSH2 0x246 JUMPI PUSH1 0x0 CALLDATASIZE PUSH1 0x3 NOT ADD SLT PUSH2 0x246 JUMPI PUSH1 0x5 SLOAD PUSH1 0x40 MLOAD PUSH1 0x1 PUSH1 0x1 PUSH1 0xA0 SHL SUB SWAP1 SWAP2 AND DUP2 MSTORE PUSH1 0x20 SWAP1 RETURN JUMPDEST CALLVALUE PUSH2 0x246 JUMPI PUSH1 0x0 CALLDATASIZE PUSH1 0x3 NOT ADD SLT PUSH2 0x246 JUMPI PUSH1 0x2 SLOAD PUSH1 0x40 MLOAD PUSH1 0x1 PUSH1 0x1 PUSH1 0xA0 SHL SUB SWAP1 SWAP2 AND DUP2 MSTORE PUSH1 0x20 SWAP1 RETURN JUMPDEST CALLVALUE PUSH2 0x246 JUMPI PUSH1 0x0 CALLDATASIZE PUSH1 0x3 NOT ADD SLT PUSH2 0x246 JUMPI PUSH1 0x20 SWAP1 ADDRESS DUP2 MSTORE RETURN JUMPDEST PUSH1 0x4 CALLDATALOAD SWAP1 PUSH1 0x1 PUSH1 0x1 PUSH1 0xA0 SHL SUB DUP3 AND DUP3 SUB PUSH2 0x246 JUMPI JUMP JUMPDEST PUSH1 0x24 CALLDATALOAD SWAP1 PUSH1 0x1 PUSH1 0x1 PUSH1 0xA0 SHL SUB DUP3 AND DUP3 SUB PUSH2 0x246 JUMPI JUMP JUMPDEST PUSH1 0x40 DUP2 ADD SWAP1 DUP2 LT PUSH8 0xFFFFFFFFFFFFFFFF DUP3 GT OR PUSH2 0x901 JUMPI PUSH1 0x40 MSTORE JUMP JUMPDEST SWAP1 PUSH1 0x1F DUP1 NOT SWAP2 ADD AND DUP2 ADD SWAP1 DUP2 LT PUSH8 0xFFFFFFFFFFFFFFFF DUP3 GT OR PUSH2 0x901 JUMPI PUSH1 0x40 MSTORE JUMP JUMPDEST PUSH8 0xFFFFFFFFFFFFFFFF DUP2 GT PUSH2 0x901 JUMPI PUSH1 0x1F ADD PUSH1 0x1F NOT AND PUSH1 0x20 ADD SWAP1 JUMP JUMPDEST SWAP3 SWAP2 SWAP3 PUSH2 0x11B7 DUP3 PUSH2 0x118F JUMP JUMPDEST SWAP2 PUSH2 0x11C5 PUSH1 0x40 MLOAD SWAP4 DUP5 PUSH2 0x116D JUMP JUMPDEST DUP3 SWAP5 DUP2 DUP5 MSTORE DUP2 DUP4 ADD GT PUSH2 0x246 JUMPI DUP3 DUP2 PUSH1 0x20 SWAP4 DUP5 PUSH1 0x0 SWAP7 ADD CALLDATACOPY ADD ADD MSTORE JUMP JUMPDEST SWAP1 DUP1 PUSH1 0x1F DUP4 ADD SLT ISZERO PUSH2 0x246 JUMPI DUP2 PUSH1 0x20 PUSH2 0x11FD SWAP4 CALLDATALOAD SWAP2 ADD PUSH2 0x11AB JUMP JUMPDEST SWAP1 JUMP JUMPDEST PUSH1 0x60 PUSH1 0x3 NOT DUP3 ADD SLT PUSH2 0x246 JUMPI PUSH1 0x4 CALLDATALOAD DUP1 ISZERO ISZERO DUP2 SUB PUSH2 0x246 JUMPI SWAP2 PUSH1 0x24 CALLDATALOAD PUSH8 0xFFFFFFFFFFFFFFFF DUP2 GT PUSH2 0x246 JUMPI DUP3 PUSH2 0x1238 SWAP2 PUSH1 0x4 ADD PUSH2 0x11E2 JUMP JUMPDEST SWAP2 PUSH1 0x44 CALLDATALOAD SWAP1 PUSH8 0xFFFFFFFFFFFFFFFF DUP3 GT PUSH2 0x246 JUMPI PUSH2 0x11FD SWAP2 PUSH1 0x4 ADD PUSH2 0x11E2 JUMP JUMPDEST SWAP2 SWAP1 DUP3 MLOAD SWAP3 DUP4 DUP3 MSTORE PUSH1 0x0 JUMPDEST DUP5 DUP2 LT PUSH2 0x1284 JUMPI POP POP DUP3 PUSH1 0x0 PUSH1 0x20 DUP1 SWAP5 SWAP6 DUP5 ADD ADD MSTORE PUSH1 0x1F DUP1 NOT SWAP2 ADD AND ADD ADD SWAP1 JUMP JUMPDEST DUP1 PUSH1 0x20 DUP1 SWAP3 DUP5 ADD ADD MLOAD DUP3 DUP3 DUP7 ADD ADD MSTORE ADD PUSH2 0x1263 JUMP JUMPDEST ISZERO PUSH2 0x12A0 JUMPI JUMP JUMPDEST PUSH1 0x40 MLOAD PUSH3 0x461BCD PUSH1 0xE5 SHL DUP2 MSTORE PUSH1 0x20 PUSH1 0x4 DUP3 ADD MSTORE PUSH1 0x3A PUSH1 0x24 DUP3 ADD MSTORE PUSH32 0x547279696E6720746F2063616C6C2065787465726E616C2066756E6374696F6E PUSH1 0x44 DUP3 ADD MSTORE PUSH32 0x207769746820696E7465726E616C207472616E73616374696F6E000000000000 PUSH1 0x64 DUP3 ADD MSTORE PUSH1 0x84 SWAP1 REVERT JUMPDEST MLOAD SWAP1 PUSH1 0x1 PUSH1 0x1 PUSH1 0xA0 SHL SUB DUP3 AND DUP3 SUB PUSH2 0x246 JUMPI JUMP JUMPDEST DUP2 DUP2 MUL SWAP3 SWAP2 DUP2 ISZERO SWAP2 DUP5 DIV EQ OR ISZERO PUSH2 0xAD7 JUMPI JUMP JUMPDEST ISZERO PUSH2 0x1339 JUMPI JUMP JUMPDEST PUSH1 0x40 MLOAD PUSH3 0x461BCD PUSH1 0xE5 SHL DUP2 MSTORE PUSH1 0x20 PUSH1 0x4 DUP3 ADD MSTORE PUSH1 0x12 PUSH1 0x24 DUP3 ADD MSTORE PUSH18 0x13195919D95C8818D85B1B0819985A5B1959 PUSH1 0x72 SHL PUSH1 0x44 DUP3 ADD MSTORE PUSH1 0x64 SWAP1 REVERT JUMPDEST SWAP2 SWAP1 DUP3 PUSH1 0x80 SWAP2 SUB SLT PUSH2 0x246 JUMPI PUSH2 0x1388 DUP3 PUSH2 0x130B JUMP JUMPDEST SWAP2 PUSH1 0x20 DUP2 ADD MLOAD SWAP2 PUSH1 0x60 PUSH2 0x139D PUSH1 0x40 DUP5 ADD PUSH2 0x130B JUMP JUMPDEST SWAP3 ADD MLOAD SWAP1 JUMP JUMPDEST ISZERO PUSH2 0x13AA JUMPI JUMP JUMPDEST PUSH1 0x40 MLOAD PUSH3 0x461BCD PUSH1 0xE5 SHL DUP2 MSTORE PUSH1 0x20 PUSH1 0x4 DUP3 ADD MSTORE PUSH1 0x12 PUSH1 0x24 DUP3 ADD MSTORE PUSH18 0x496E73756666696369656E742066756E6473 PUSH1 0x70 SHL PUSH1 0x44 DUP3 ADD MSTORE PUSH1 0x64 SWAP1 REVERT JUMPDEST SWAP1 PUSH1 0x1 DUP3 DUP2 SHR SWAP3 AND DUP1 ISZERO PUSH2 0x1414 JUMPI JUMPDEST PUSH1 0x20 DUP4 LT EQ PUSH2 0x13FE JUMPI JUMP JUMPDEST PUSH4 0x4E487B71 PUSH1 0xE0 SHL PUSH1 0x0 MSTORE PUSH1 0x22 PUSH1 0x4 MSTORE PUSH1 0x24 PUSH1 0x0 REVERT JUMPDEST SWAP2 PUSH1 0x7F AND SWAP2 PUSH2 0x13F3 JUMP JUMPDEST SWAP2 SWAP1 DUP3 PUSH1 0x40 SWAP2 SUB SLT PUSH2 0x246 JUMPI PUSH2 0x11FD PUSH1 0x20 PUSH2 0xF78 DUP5 PUSH2 0x130B JUMP JUMPDEST DUP1 MLOAD ISZERO PUSH2 0x1445 JUMPI PUSH1 0x20 ADD SWAP1 JUMP JUMPDEST PUSH4 0x4E487B71 PUSH1 0xE0 SHL PUSH1 0x0 MSTORE PUSH1 0x32 PUSH1 0x4 MSTORE PUSH1 0x24 PUSH1 0x0 REVERT JUMPDEST SWAP2 SWAP1 DUP3 ADD DUP1 SWAP3 GT PUSH2 0xAD7 JUMPI JUMP JUMPDEST SWAP1 DUP2 PUSH1 0x20 SWAP2 SUB SLT PUSH2 0x246 JUMPI MLOAD DUP1 ISZERO ISZERO DUP2 SUB PUSH2 0x246 JUMPI SWAP1 JUMP JUMPDEST PUSH1 0x0 DUP1 PUSH1 0x60 MLOAD PUSH1 0x80 PUSH1 0xFF GAS STATICCALL RETURNDATASIZE ISZERO PUSH2 0x1575 JUMPI RETURNDATASIZE SWAP1 PUSH2 0x149D DUP3 PUSH2 0x118F JUMP JUMPDEST SWAP2 PUSH2 0x14AB PUSH1 0x40 MLOAD SWAP4 DUP5 PUSH2 0x116D JUMP JUMPDEST DUP3 MSTORE RETURNDATASIZE PUSH1 0x0 PUSH1 0x20 DUP5 ADD RETURNDATACOPY JUMPDEST ISZERO PUSH2 0x1531 JUMPI DUP1 MLOAD ISZERO PUSH2 0x14D5 JUMPI DUP1 PUSH1 0x20 DUP1 PUSH2 0x11FD SWAP4 MLOAD DUP4 ADD ADD SWAP2 ADD PUSH2 0x1468 JUMP JUMPDEST PUSH1 0x40 MLOAD PUSH3 0x461BCD PUSH1 0xE5 SHL DUP2 MSTORE PUSH1 0x20 PUSH1 0x4 DUP3 ADD MSTORE PUSH1 0x2E PUSH1 0x24 DUP3 ADD MSTORE PUSH32 0x2749535F494E5445524E414C5F5452414E53414354494F4E272072657475726E PUSH1 0x44 DUP3 ADD MSTORE PUSH14 0x7320696E76616C69642064617461 PUSH1 0x90 SHL PUSH1 0x64 DUP3 ADD MSTORE PUSH1 0x84 SWAP1 REVERT JUMPDEST PUSH1 0x64 PUSH1 0x40 MLOAD PUSH3 0x461BCD PUSH1 0xE5 SHL DUP2 MSTORE PUSH1 0x20 PUSH1 0x4 DUP3 ADD MSTORE PUSH1 0x20 PUSH1 0x24 DUP3 ADD MSTORE PUSH32 0x507265636F6D70696C656420636F6E74726163742063616C6C206661696C6564 PUSH1 0x44 DUP3 ADD MSTORE REVERT JUMPDEST PUSH1 0x60 SWAP1 PUSH2 0x14B6 JUMP JUMPDEST SWAP3 SWAP2 SWAP3 PUSH1 0x40 SWAP1 DUP2 MLOAD SWAP3 PUSH2 0x1590 DUP4 DUP6 PUSH2 0x116D JUMP JUMPDEST PUSH1 0x1 DUP5 MSTORE PUSH1 0x1F NOT DUP4 ADD PUSH1 0x0 JUMPDEST DUP2 DUP2 LT PUSH2 0x1694 JUMPI POP POP PUSH2 0x1647 SWAP4 SWAP5 SWAP6 DUP4 MLOAD SWAP2 PUSH2 0x15B7 DUP4 PUSH2 0x1151 JUMP JUMPDEST PUSH1 0x1 PUSH1 0x1 PUSH1 0xA0 SHL SUB AND DUP3 MSTORE PUSH1 0x20 DUP3 ADD MSTORE PUSH2 0x15D0 DUP6 PUSH2 0x1438 JUMP JUMPDEST MSTORE PUSH2 0x15DA DUP5 PUSH2 0x1438 JUMP JUMPDEST POP PUSH1 0x20 SWAP4 DUP5 SWAP2 PUSH2 0x1659 DUP5 MLOAD PUSH2 0x15EF DUP6 DUP3 PUSH2 0x116D JUMP JUMPDEST PUSH1 0x0 DUP2 MSTORE DUP6 MLOAD SWAP7 DUP8 SWAP5 DUP6 SWAP5 PUSH4 0xF6975653 PUSH1 0xE0 SHL DUP7 MSTORE PUSH1 0x0 PUSH1 0x4 DUP8 ADD MSTORE PUSH1 0x0 PUSH1 0x24 DUP8 ADD MSTORE PUSH1 0x1 DUP1 PUSH1 0xA0 SHL SUB AND PUSH1 0x44 DUP7 ADD MSTORE PUSH1 0x0 PUSH1 0x64 DUP7 ADD MSTORE PUSH1 0x0 PUSH1 0x84 DUP7 ADD MSTORE PUSH1 0x0 PUSH1 0xA4 DUP7 ADD MSTORE PUSH2 0x100 PUSH1 0xC4 DUP7 ADD MSTORE PUSH2 0x104 DUP6 ADD SWAP1 PUSH2 0x1701 JUMP JUMPDEST DUP4 DUP2 SUB PUSH1 0x3 NOT ADD PUSH1 0xE4 DUP6 ADD MSTORE SWAP1 PUSH2 0x1258 JUMP JUMPDEST SUB DUP2 PUSH1 0x0 PUSH1 0xFD GAS CALL SWAP1 DUP2 ISZERO PUSH2 0x168A JUMPI POP PUSH2 0x1671 JUMPI POP POP JUMP JUMPDEST DUP2 PUSH2 0x1687 SWAP3 SWAP1 RETURNDATASIZE LT PUSH2 0x233 JUMPI PUSH2 0x229 DUP2 DUP4 PUSH2 0x116D JUMP JUMPDEST POP JUMP JUMPDEST MLOAD RETURNDATASIZE PUSH1 0x0 DUP3 RETURNDATACOPY RETURNDATASIZE SWAP1 REVERT JUMPDEST PUSH1 0x20 SWAP1 DUP6 MLOAD PUSH2 0x16A2 DUP2 PUSH2 0x1151 JUMP JUMPDEST PUSH1 0x0 DUP2 MSTORE PUSH1 0x0 DUP4 DUP3 ADD MSTORE DUP3 DUP3 DUP10 ADD ADD MSTORE ADD PUSH2 0x159C JUMP JUMPDEST PUSH1 0x20 PUSH1 0x60 MLOAD SWAP2 DUP3 DUP2 MSTORE ADD SWAP1 PUSH1 0x80 SWAP1 PUSH1 0x0 JUMPDEST DUP2 DUP2 LT PUSH2 0x16D6 JUMPI POP POP POP SWAP1 JUMP JUMPDEST DUP3 MLOAD DUP1 MLOAD PUSH1 0x1 PUSH1 0x1 PUSH1 0xA0 SHL SUB AND DUP6 MSTORE PUSH1 0x20 SWAP1 DUP2 ADD MLOAD DUP2 DUP7 ADD MSTORE PUSH1 0x40 SWAP1 SWAP5 ADD SWAP4 SWAP1 SWAP3 ADD SWAP2 PUSH1 0x1 ADD PUSH2 0x16C9 JUMP JUMPDEST SWAP1 PUSH1 0x20 DUP1 DUP4 MLOAD SWAP3 DUP4 DUP2 MSTORE ADD SWAP3 ADD SWAP1 PUSH1 0x0 JUMPDEST DUP2 DUP2 LT PUSH2 0x171F JUMPI POP POP POP SWAP1 JUMP JUMPDEST DUP3 MLOAD DUP1 MLOAD PUSH1 0x1 PUSH1 0x1 PUSH1 0xA0 SHL SUB AND DUP6 MSTORE PUSH1 0x20 SWAP1 DUP2 ADD MLOAD DUP2 DUP7 ADD MSTORE PUSH1 0x40 SWAP1 SWAP5 ADD SWAP4 SWAP1 SWAP3 ADD SWAP2 PUSH1 0x1 ADD PUSH2 0x1712 JUMP JUMPDEST PUSH1 0x40 MLOAD PUSH4 0x100897A5 PUSH1 0xE2 SHL DUP2 MSTORE PUSH1 0x1 PUSH1 0x1 PUSH1 0xA0 SHL SUB SWAP1 SWAP2 AND PUSH1 0x4 DUP3 ADD MSTORE PUSH1 0xA0 PUSH1 0x24 DUP3 ADD MSTORE SWAP2 PUSH1 0x20 SWAP2 DUP4 SWAP2 DUP3 SWAP2 PUSH2 0x17A6 SWAP2 SWAP1 PUSH2 0x1EA SWAP1 PUSH2 0x178B PUSH1 0xA4 DUP7 ADD PUSH2 0x16B8 JUMP JUMPDEST PUSH3 0x5B8D80 PUSH1 0x44 DUP8 ADD MSTORE DUP6 DUP2 SUB PUSH1 0x3 NOT ADD PUSH1 0x64 DUP8 ADD MSTORE SWAP1 PUSH2 0x1258 JUMP JUMPDEST SUB DUP2 PUSH1 0x0 PUSH1 0xD8 GAS CALL DUP1 ISZERO PUSH2 0x23A JUMPI PUSH2 0x17BB JUMPI POP JUMP JUMPDEST PUSH2 0x1687 SWAP1 PUSH1 0x20 RETURNDATASIZE PUSH1 0x20 GT PUSH2 0x233 JUMPI PUSH2 0x229 DUP2 DUP4 PUSH2 0x116D JUMP JUMPDEST PUSH1 0x40 MLOAD PUSH4 0x9614DDAF PUSH1 0xE0 SHL DUP2 MSTORE PUSH1 0x1 PUSH1 0x1 PUSH1 0xA0 SHL SUB SWAP3 DUP4 AND PUSH1 0x4 DUP3 ADD MSTORE SWAP2 AND PUSH1 0x24 DUP3 ADD MSTORE PUSH1 0x20 DUP2 PUSH1 0x44 DUP2 PUSH1 0xD1 GAS STATICCALL SWAP1 DUP2 ISZERO PUSH2 0x23A JUMPI PUSH1 0x0 SWAP2 PUSH2 0x1813 JUMPI POP SWAP1 JUMP JUMPDEST SWAP1 POP PUSH1 0x20 DUP2 RETURNDATASIZE PUSH1 0x20 GT PUSH2 0x183A JUMPI JUMPDEST DUP2 PUSH2 0x182E PUSH1 0x20 SWAP4 DUP4 PUSH2 0x116D JUMP JUMPDEST DUP2 ADD SUB SLT PUSH2 0x246 JUMPI MLOAD SWAP1 JUMP JUMPDEST RETURNDATASIZE SWAP2 POP PUSH2 0x1821 JUMP JUMPDEST PUSH1 0x40 MLOAD PUSH4 0x4016D87 PUSH1 0xE5 SHL DUP2 MSTORE PUSH1 0x0 DUP2 PUSH1 0x4 DUP2 DUP4 PUSH1 0xD3 GAS CALL SWAP1 DUP2 ISZERO PUSH2 0x23A JUMPI PUSH1 0x0 SWAP2 PUSH2 0x186C JUMPI POP SWAP1 JUMP JUMPDEST SWAP1 RETURNDATASIZE DUP1 DUP3 DUP5 RETURNDATACOPY PUSH2 0x187C DUP2 DUP5 PUSH2 0x116D JUMP JUMPDEST DUP3 ADD SWAP2 PUSH1 0x20 DUP2 DUP5 SUB SLT PUSH2 0x1949 JUMPI DUP1 MLOAD SWAP1 PUSH8 0xFFFFFFFFFFFFFFFF DUP3 GT PUSH2 0x1931 JUMPI ADD DUP3 PUSH1 0x1F DUP3 ADD SLT ISZERO PUSH2 0x1949 JUMPI DUP1 MLOAD SWAP2 PUSH8 0xFFFFFFFFFFFFFFFF DUP4 GT PUSH2 0x1935 JUMPI PUSH1 0x20 DUP4 PUSH1 0x5 SHL ADD SWAP4 PUSH2 0x18CE PUSH1 0x40 MLOAD SWAP6 DUP7 PUSH2 0x116D JUMP JUMPDEST DUP4 DUP6 MSTORE PUSH1 0x20 DUP1 DUP7 ADD SWAP5 PUSH1 0x6 SHL DUP5 ADD ADD SWAP3 DUP2 DUP5 GT PUSH2 0x1931 JUMPI PUSH1 0x20 ADD SWAP4 JUMPDEST DUP4 DUP6 LT PUSH2 0x18F9 JUMPI POP POP POP POP POP SWAP1 JUMP JUMPDEST PUSH1 0x40 DUP6 DUP4 SUB SLT PUSH2 0x1931 JUMPI PUSH1 0x20 PUSH1 0x40 SWAP2 DUP3 MLOAD PUSH2 0x1913 DUP2 PUSH2 0x1151 JUMP JUMPDEST PUSH2 0x191C DUP9 PUSH2 0x130B JUMP JUMPDEST DUP2 MSTORE DUP3 DUP9 ADD MLOAD DUP4 DUP3 ADD MSTORE DUP2 MSTORE ADD SWAP5 ADD SWAP4 PUSH2 0x18EA JUMP JUMPDEST DUP3 DUP1 REVERT JUMPDEST PUSH4 0x4E487B71 PUSH1 0xE0 SHL DUP2 MSTORE PUSH1 0x41 PUSH1 0x4 MSTORE PUSH1 0x24 SWAP1 REVERT JUMPDEST POP DUP1 REVERT JUMPDEST PUSH1 0x40 MLOAD PUSH4 0xF6975653 PUSH1 0xE0 SHL DUP2 MSTORE PUSH1 0x0 PUSH1 0x4 DUP3 ADD DUP2 SWAP1 MSTORE PUSH1 0x24 DUP3 ADD DUP2 SWAP1 MSTORE PUSH1 0x1 PUSH1 0x1 PUSH1 0xA0 SHL SUB SWAP3 DUP4 AND PUSH1 0x44 DUP4 ADD MSTORE PUSH1 0x64 DUP3 ADD DUP2 SWAP1 MSTORE SWAP2 SWAP1 SWAP3 AND PUSH1 0x84 DUP4 ADD MSTORE PUSH1 0xA4 DUP3 ADD MSTORE PUSH2 0x100 PUSH1 0xC4 DUP3 ADD MSTORE SWAP1 PUSH1 0x20 SWAP1 DUP3 SWAP1 DUP2 SWAP1 PUSH2 0x19B2 SWAP1 PUSH2 0x1647 PUSH2 0x104 DUP5 ADD PUSH1 0x60 PUSH2 0x1701 JUMP JUMPDEST SUB DUP2 PUSH1 0x0 PUSH1 0xFD GAS CALL DUP1 ISZERO PUSH2 0x23A JUMPI PUSH2 0x17BB JUMPI POP JUMP INVALID 0xB1 0xE 0x2D MSTORE PUSH23 0x12073B26EECDFD717E6A320CF44B4AFAC2B0732D9FCBE2 0xB7 STATICCALL 0xC 0xF6 LOG2 PUSH5 0x6970667358 0x22 SLT KECCAK256 PUSH15 0x36DBA23ECF66F2CE59952299D0AC99 0xDA 0xBA RETURNDATASIZE PUSH26 0x6E3442AAD0EC843C3401189E64736F6C634300081C0033000000 "},"methodIdentifiers":{"borrow(uint256,address)":"4b3fd148","burnToken(uint256)":"7b47ec1a","deposit()":"d0e30db0","eth()":"8c7c9e0c","finalizeLoan(bool,bytes,bytes)":"4761a3ee","getOwnTokenBalance()":"d19b9b75","getTokenBalanceOf(address)":"83894548","getTokenId()":"010a38f5","getTokenName()":"862b092b","getTokenTotalSupply()":"57df844b","globalLedger()":"10401774","handleRepayment(bool,bytes,bytes)":"659dbf99","interestManager()":"ee065e11","mintToken(uint256)":"c634d032","oracle()":"7dc0d1d0","processLoan(bool,bytes,bytes)":"46fe5431","processRepayment(bool,bytes,bytes)":"eeaf7d8e","releaseCollateral(bool,bytes,bytes)":"c513a8f5","repayLoan()":"f966ade7","sendCollateral(bool,bytes,bytes)":"c59e1c8f","sendToken(address,address,uint256)":"2fdcfbd2","setTokenName(string)":"a4f29aad","usdt()":"2f48ab7d"}}}}}