{"contracts/InterestManager.sol":{"InterestManager":{"abi":[{"inputs":[],"name":"getInterestRate","outputs":[{"internalType":"uint256","name":"","type":"uint256"}],"stateMutability":"pure","type":"function"}],"evm":{"bytecode":{"linkReferences":{},"object":"608080604052346013576079908160198239f35b600080fdfe6080806040526004361015601257600080fd5b60003560e01c635257b56614602657600080fd5b34603e576000366003190112603e5780600560209252f35b600080fdfea26469706673582212200fe2ff9192e24d2ad51cf5cbc6a76bf10618a7d6898b46216382a5c82398043764736f6c634300081c0033","opcodes":"PUSH1 0x80 DUP1 PUSH1 0x40 MSTORE CALLVALUE PUSH1 0x13 JUMPI PUSH1 0x79 SWAP1 DUP2 PUSH1 0x19 DUP3 CODECOPY RETURN JUMPDEST PUSH1 0x0 DUP1 REVERT INVALID PUSH1 0x80 DUP1 PUSH1 0x40 MSTORE PUSH1 0x4 CALLDATASIZE LT ISZERO PUSH1 0x12 JUMPI PUSH1 0x0 DUP1 REVERT JUMPDEST PUSH1 0x0 CALLDATALOAD PUSH1 0xE0 SHR PUSH4 0x5257B566 EQ PUSH1 0x26 JUMPI PUSH1 0x0 DUP1 REVERT JUMPDEST CALLVALUE PUSH1 0x3E JUMPI PUSH1 0x0 CALLDATASIZE PUSH1 0x3 NOT ADD SLT PUSH1 0x3E JUMPI DUP1 PUSH1 0x5 PUSH1 0x20 SWAP3 MSTORE RETURN JUMPDEST PUSH1 0x0 DUP1 REVERT INVALID LOG2 PUSH5 0x6970667358 0x22 SLT KECCAK256 0xF 0xE2 SELFDESTRUCT SWAP2 SWAP3 0xE2 0x4D 0x2A 0xD5 SHR CREATE2 0xCB 0xC6 0xA7 PUSH12 0xF10618A7D6898B46216382A5 0xC8 0x23 SWAP9 DIV CALLDATACOPY PUSH5 0x736F6C6343 STOP ADDMOD SHR STOP CALLER "},"methodIdentifiers":{"getInterestRate()":"5257b566"}}}}}