{"@nilfoundation/smart-contracts/contracts/Nil.sol":{"__Precompile__":{"abi":[{"inputs":[{"internalType":"bool","name":"","type":"bool"},{"internalType":"uint8","name":"","type":"uint8"},{"internalType":"address","name":"","type":"address"},{"internalType":"address","name":"","type":"address"},{"internalType":"address","name":"","type":"address"},{"internalType":"uint256","name":"","type":"uint256"},{"components":[{"internalType":"TokenId","name":"id","type":"address"},{"internalType":"uint256","name":"amount","type":"uint256"}],"internalType":"struct Nil.Token[]","name":"","type":"tuple[]"},{"internalType":"bytes","name":"","type":"bytes"}],"name":"precompileAsyncCall","outputs":[{"internalType":"bool","name":"","type":"bool"}],"stateMutability":"payable","type":"function"},{"inputs":[{"internalType":"address","name":"","type":"address"},{"internalType":"uint256","name":"","type":"uint256"},{"internalType":"bytes","name":"","type":"bytes"}],"name":"precompileAwaitCall","outputs":[{"internalType":"bytes","name":"","type":"bytes"},{"internalType":"bool","name":"","type":"bool"}],"stateMutability":"payable","type":"function"},{"inputs":[{"internalType":"bool","name":"isSet","type":"bool"},{"internalType":"string","name":"name","type":"string"},{"internalType":"bytes","name":"data","type":"bytes"}],"name":"precompileConfigParam","outputs":[{"internalType":"bytes","name":"","type":"bytes"}],"stateMutability":"nonpayable","type":"function"},{"inputs":[{"internalType":"uint256","name":"id","type":"uint256"}],"name":"precompileGetGasPrice","outputs":[{"internalType":"uint256","name":"","type":"uint256"}],"stateMutability":"nonpayable","type":"function"},{"inputs":[{"internalType":"bytes","name":"data","type":"bytes"}],"name":"precompileGetPoseidonHash","outputs":[{"internalType":"uint256","name":"","type":"uint256"}],"stateMutability":"nonpayable","type":"function"},{"inputs":[{"internalType":"TokenId","name":"id","type":"address"},{"internalType":"address","name":"addr","type":"address"}],"name":"precompileGetTokenBalance","outputs":[{"internalType":"uint256","name":"","type":"uint256"}],"stateMutability":"view","type":"function"},{"inputs":[],"name":"precompileGetTransactionTokens","outputs":[{"components":[{"internalType":"TokenId","name":"id","type":"address"},{"internalType":"uint256","name":"amount","type":"uint256"}],"internalType":"struct Nil.Token[]","name":"","type":"tuple[]"}],"stateMutability":"nonpayable","type":"function"},{"inputs":[{"internalType":"string","name":"transaction","type":"string"},{"internalType":"int256[]","name":"data","type":"int256[]"}],"name":"precompileLog","outputs":[{"internalType":"bool","name":"","type":"bool"}],"stateMutability":"nonpayable","type":"function"},{"inputs":[{"internalType":"uint256","name":"amount","type":"uint256"},{"internalType":"bool","name":"mint","type":"bool"}],"name":"precompileManageToken","outputs":[{"internalType":"bool","name":"","type":"bool"}],"stateMutability":"nonpayable","type":"function"},{"inputs":[{"internalType":"address","name":"","type":"address"},{"components":[{"internalType":"TokenId","name":"id","type":"address"},{"internalType":"uint256","name":"amount","type":"uint256"}],"internalType":"struct Nil.Token[]","name":"","type":"tuple[]"},{"internalType":"uint256","name":"","type":"uint256"},{"internalType":"bytes","name":"","type":"bytes"},{"internalType":"bytes","name":"","type":"bytes"}],"name":"precompileSendRequest","outputs":[{"internalType":"bool","name":"","type":"bool"}],"stateMutability":"payable","type":"function"},{"inputs":[{"internalType":"address","name":"","type":"address"},{"components":[{"internalType":"TokenId","name":"id","type":"address"},{"internalType":"uint256","name":"amount","type":"uint256"}],"internalType":"struct Nil.Token[]","name":"","type":"tuple[]"}],"name":"precompileSendTokens","outputs":[{"internalType":"bool","name":"","type":"bool"}],"stateMutability":"nonpayable","type":"function"}],"evm":{"bytecode":{"linkReferences":{},"object":"608080604052346015576106b4908161001b8239f35b600080fdfe6080604052600436101561001257600080fd5b60003560e01c806303cfdb76146103e757806340225e941461037357806359777fc21461035a57806378312c6b1461032a578063802db0e0146102c05780638c4b00361461020d5780639614ddaf146101eb5780639ef8d0fa14610177578063a6c085bf1461015b578063d6ff6d2e146101225763f69756531461009557600080fd5b61010036600319011261011d576100aa610642565b5060243560ff81160361011d576100bf610467565b506100c861047d565b506100d1610493565b5060c4356001600160401b03811161011d576100f1903690600401610599565b5060e4356001600160401b03811161011d57610111903690600401610525565b50602060405160008152f35b600080fd5b3461011d57604036600319011261011d5761013b61043b565b506024356001600160401b03811161011d57610111903690600401610599565b3461011d57602036600319011261011d57602060405160008152f35b3461011d57606036600319011261011d57610190610642565b506024356001600160401b03811161011d576101b0903690600401610651565b50506044356001600160401b03811161011d576101d1903690600401610651565b505060405160208152806101e760208201610543565b0390f35b3461011d57604036600319011261011d5761020461043b565b50610111610451565b3461011d57604036600319011261011d576004356001600160401b03811161011d573660238201121561011d5761024e9036906024816004013591016104e4565b506024356001600160401b03811161011d573660238201121561011d578060040135906024602061028661028185610582565b6104a9565b848152019260051b8201019036821161011d57602401915b8183106102b057602060405160008152f35b823581526020928301920161029e565b3461011d57600036600319011261011d57604051806020810160208252606051809152604082019060809060005b8181106102fc575050500390f35b825180516001600160a01b0316855260209081015181860152869550604090940193909201916001016102ee565b3461011d57602036600319011261011d576004356001600160401b03811161011d57610111903690600401610525565b3461011d57604036600319011261011d57610111610633565b60a036600319011261011d5761038761043b565b506024356001600160401b03811161011d576103a7903690600401610599565b506064356001600160401b03811161011d576103c7903690600401610525565b506084356001600160401b03811161011d57610111903690600401610525565b606036600319011261011d576103fb61043b565b506044356001600160401b03811161011d5761041b903690600401610525565b50604051604081528061043060408201610543565b600060208301520390f35b600435906001600160a01b038216820361011d57565b602435906001600160a01b038216820361011d57565b604435906001600160a01b038216820361011d57565b606435906001600160a01b038216820361011d57565b608435906001600160a01b038216820361011d57565b6040519190601f01601f191682016001600160401b038111838210176104ce57604052565b634e487b7160e01b600052604160045260246000fd5b9291926001600160401b0382116104ce57610508601f8301601f19166020016104a9565b938285528282011161011d57816000926020928387013784010152565b9080601f8301121561011d57816020610540933591016104e4565b90565b906060519182815260005b83811061056e5750826000602080949584010152601f8019910116010190565b80608060209201518282850101520161054e565b6001600160401b0381116104ce5760051b60200190565b81601f8201121561011d578035906105b361028183610582565b9260208085858152019360061b8301019181831161011d57602001925b8284106105de575050505090565b60408483031261011d5760405190604082018281106001600160401b038211176104ce576040528435906001600160a01b038216820361011d57826020926040945282870135838201528152019301926105d0565b60243590811515820361011d57565b60043590811515820361011d57565b9181601f8401121561011d578235916001600160401b03831161011d576020838186019501011161011d5756fea2646970667358221220ab42df288db8856dbc9140e7ca40ead038c4f87b8cffbd7bf84cbfc2ebb6515364736f6c634300081c0033","opcodes":"PUSH1 0x80 DUP1 PUSH1 0x40 MSTORE CALLVALUE PUSH1 0x15 JUMPI PUSH2 0x6B4 SWAP1 DUP2 PUSH2 0x1B DUP3 CODECOPY RETURN JUMPDEST PUSH1 0x0 DUP1 REVERT INVALID PUSH1 0x80 PUSH1 0x40 MSTORE PUSH1 0x4 CALLDATASIZE LT ISZERO PUSH2 0x12 JUMPI PUSH1 0x0 DUP1 REVERT JUMPDEST PUSH1 0x0 CALLDATALOAD PUSH1 0xE0 SHR DUP1 PUSH4 0x3CFDB76 EQ PUSH2 0x3E7 JUMPI DUP1 PUSH4 0x40225E94 EQ PUSH2 0x373 JUMPI DUP1 PUSH4 0x59777FC2 EQ PUSH2 0x35A JUMPI DUP1 PUSH4 0x78312C6B EQ PUSH2 0x32A JUMPI DUP1 PUSH4 0x802DB0E0 EQ PUSH2 0x2C0 JUMPI DUP1 PUSH4 0x8C4B0036 EQ PUSH2 0x20D JUMPI DUP1 PUSH4 0x9614DDAF EQ PUSH2 0x1EB JUMPI DUP1 PUSH4 0x9EF8D0FA EQ PUSH2 0x177 JUMPI DUP1 PUSH4 0xA6C085BF EQ PUSH2 0x15B JUMPI DUP1 PUSH4 0xD6FF6D2E EQ PUSH2 0x122 JUMPI PUSH4 0xF6975653 EQ PUSH2 0x95 JUMPI PUSH1 0x0 DUP1 REVERT JUMPDEST PUSH2 0x100 CALLDATASIZE PUSH1 0x3 NOT ADD SLT PUSH2 0x11D JUMPI PUSH2 0xAA PUSH2 0x642 JUMP JUMPDEST POP PUSH1 0x24 CALLDATALOAD PUSH1 0xFF DUP2 AND SUB PUSH2 0x11D JUMPI PUSH2 0xBF PUSH2 0x467 JUMP JUMPDEST POP PUSH2 0xC8 PUSH2 0x47D JUMP JUMPDEST POP PUSH2 0xD1 PUSH2 0x493 JUMP JUMPDEST POP PUSH1 0xC4 CALLDATALOAD PUSH1 0x1 PUSH1 0x1 PUSH1 0x40 SHL SUB DUP2 GT PUSH2 0x11D JUMPI PUSH2 0xF1 SWAP1 CALLDATASIZE SWAP1 PUSH1 0x4 ADD PUSH2 0x599 JUMP JUMPDEST POP PUSH1 0xE4 CALLDATALOAD PUSH1 0x1 PUSH1 0x1 PUSH1 0x40 SHL SUB DUP2 GT PUSH2 0x11D JUMPI PUSH2 0x111 SWAP1 CALLDATASIZE SWAP1 PUSH1 0x4 ADD PUSH2 0x525 JUMP JUMPDEST POP PUSH1 0x20 PUSH1 0x40 MLOAD PUSH1 0x0 DUP2 MSTORE RETURN JUMPDEST PUSH1 0x0 DUP1 REVERT JUMPDEST CALLVALUE PUSH2 0x11D JUMPI PUSH1 0x40 CALLDATASIZE PUSH1 0x3 NOT ADD SLT PUSH2 0x11D JUMPI PUSH2 0x13B PUSH2 0x43B JUMP JUMPDEST POP PUSH1 0x24 CALLDATALOAD PUSH1 0x1 PUSH1 0x1 PUSH1 0x40 SHL SUB DUP2 GT PUSH2 0x11D JUMPI PUSH2 0x111 SWAP1 CALLDATASIZE SWAP1 PUSH1 0x4 ADD PUSH2 0x599 JUMP JUMPDEST CALLVALUE PUSH2 0x11D JUMPI PUSH1 0x20 CALLDATASIZE PUSH1 0x3 NOT ADD SLT PUSH2 0x11D JUMPI PUSH1 0x20 PUSH1 0x40 MLOAD PUSH1 0x0 DUP2 MSTORE RETURN JUMPDEST CALLVALUE PUSH2 0x11D JUMPI PUSH1 0x60 CALLDATASIZE PUSH1 0x3 NOT ADD SLT PUSH2 0x11D JUMPI PUSH2 0x190 PUSH2 0x642 JUMP JUMPDEST POP PUSH1 0x24 CALLDATALOAD PUSH1 0x1 PUSH1 0x1 PUSH1 0x40 SHL SUB DUP2 GT PUSH2 0x11D JUMPI PUSH2 0x1B0 SWAP1 CALLDATASIZE SWAP1 PUSH1 0x4 ADD PUSH2 0x651 JUMP JUMPDEST POP POP PUSH1 0x44 CALLDATALOAD PUSH1 0x1 PUSH1 0x1 PUSH1 0x40 SHL SUB DUP2 GT PUSH2 0x11D JUMPI PUSH2 0x1D1 SWAP1 CALLDATASIZE SWAP1 PUSH1 0x4 ADD PUSH2 0x651 JUMP JUMPDEST POP POP PUSH1 0x40 MLOAD PUSH1 0x20 DUP2 MSTORE DUP1 PUSH2 0x1E7 PUSH1 0x20 DUP3 ADD PUSH2 0x543 JUMP JUMPDEST SUB SWAP1 RETURN JUMPDEST CALLVALUE PUSH2 0x11D JUMPI PUSH1 0x40 CALLDATASIZE PUSH1 0x3 NOT ADD SLT PUSH2 0x11D JUMPI PUSH2 0x204 PUSH2 0x43B JUMP JUMPDEST POP PUSH2 0x111 PUSH2 0x451 JUMP JUMPDEST CALLVALUE PUSH2 0x11D JUMPI PUSH1 0x40 CALLDATASIZE PUSH1 0x3 NOT ADD SLT PUSH2 0x11D JUMPI PUSH1 0x4 CALLDATALOAD PUSH1 0x1 PUSH1 0x1 PUSH1 0x40 SHL SUB DUP2 GT PUSH2 0x11D JUMPI CALLDATASIZE PUSH1 0x23 DUP3 ADD SLT ISZERO PUSH2 0x11D JUMPI PUSH2 0x24E SWAP1 CALLDATASIZE SWAP1 PUSH1 0x24 DUP2 PUSH1 0x4 ADD CALLDATALOAD SWAP2 ADD PUSH2 0x4E4 JUMP JUMPDEST POP PUSH1 0x24 CALLDATALOAD PUSH1 0x1 PUSH1 0x1 PUSH1 0x40 SHL SUB DUP2 GT PUSH2 0x11D JUMPI CALLDATASIZE PUSH1 0x23 DUP3 ADD SLT ISZERO PUSH2 0x11D JUMPI DUP1 PUSH1 0x4 ADD CALLDATALOAD SWAP1 PUSH1 0x24 PUSH1 0x20 PUSH2 0x286 PUSH2 0x281 DUP6 PUSH2 0x582 JUMP JUMPDEST PUSH2 0x4A9 JUMP JUMPDEST DUP5 DUP2 MSTORE ADD SWAP3 PUSH1 0x5 SHL DUP3 ADD ADD SWAP1 CALLDATASIZE DUP3 GT PUSH2 0x11D JUMPI PUSH1 0x24 ADD SWAP2 JUMPDEST DUP2 DUP4 LT PUSH2 0x2B0 JUMPI PUSH1 0x20 PUSH1 0x40 MLOAD PUSH1 0x0 DUP2 MSTORE RETURN JUMPDEST DUP3 CALLDATALOAD DUP2 MSTORE PUSH1 0x20 SWAP3 DUP4 ADD SWAP3 ADD PUSH2 0x29E JUMP JUMPDEST CALLVALUE PUSH2 0x11D JUMPI PUSH1 0x0 CALLDATASIZE PUSH1 0x3 NOT ADD SLT PUSH2 0x11D JUMPI PUSH1 0x40 MLOAD DUP1 PUSH1 0x20 DUP2 ADD PUSH1 0x20 DUP3 MSTORE PUSH1 0x60 MLOAD DUP1 SWAP2 MSTORE PUSH1 0x40 DUP3 ADD SWAP1 PUSH1 0x80 SWAP1 PUSH1 0x0 JUMPDEST DUP2 DUP2 LT PUSH2 0x2FC JUMPI POP POP POP SUB SWAP1 RETURN JUMPDEST DUP3 MLOAD DUP1 MLOAD PUSH1 0x1 PUSH1 0x1 PUSH1 0xA0 SHL SUB AND DUP6 MSTORE PUSH1 0x20 SWAP1 DUP2 ADD MLOAD DUP2 DUP7 ADD MSTORE DUP7 SWAP6 POP PUSH1 0x40 SWAP1 SWAP5 ADD SWAP4 SWAP1 SWAP3 ADD SWAP2 PUSH1 0x1 ADD PUSH2 0x2EE JUMP JUMPDEST CALLVALUE PUSH2 0x11D JUMPI PUSH1 0x20 CALLDATASIZE PUSH1 0x3 NOT ADD SLT PUSH2 0x11D JUMPI PUSH1 0x4 CALLDATALOAD PUSH1 0x1 PUSH1 0x1 PUSH1 0x40 SHL SUB DUP2 GT PUSH2 0x11D JUMPI PUSH2 0x111 SWAP1 CALLDATASIZE SWAP1 PUSH1 0x4 ADD PUSH2 0x525 JUMP JUMPDEST CALLVALUE PUSH2 0x11D JUMPI PUSH1 0x40 CALLDATASIZE PUSH1 0x3 NOT ADD SLT PUSH2 0x11D JUMPI PUSH2 0x111 PUSH2 0x633 JUMP JUMPDEST PUSH1 0xA0 CALLDATASIZE PUSH1 0x3 NOT ADD SLT PUSH2 0x11D JUMPI PUSH2 0x387 PUSH2 0x43B JUMP JUMPDEST POP PUSH1 0x24 CALLDATALOAD PUSH1 0x1 PUSH1 0x1 PUSH1 0x40 SHL SUB DUP2 GT PUSH2 0x11D JUMPI PUSH2 0x3A7 SWAP1 CALLDATASIZE SWAP1 PUSH1 0x4 ADD PUSH2 0x599 JUMP JUMPDEST POP PUSH1 0x64 CALLDATALOAD PUSH1 0x1 PUSH1 0x1 PUSH1 0x40 SHL SUB DUP2 GT PUSH2 0x11D JUMPI PUSH2 0x3C7 SWAP1 CALLDATASIZE SWAP1 PUSH1 0x4 ADD PUSH2 0x525 JUMP JUMPDEST POP PUSH1 0x84 CALLDATALOAD PUSH1 0x1 PUSH1 0x1 PUSH1 0x40 SHL SUB DUP2 GT PUSH2 0x11D JUMPI PUSH2 0x111 SWAP1 CALLDATASIZE SWAP1 PUSH1 0x4 ADD PUSH2 0x525 JUMP JUMPDEST PUSH1 0x60 CALLDATASIZE PUSH1 0x3 NOT ADD SLT PUSH2 0x11D JUMPI PUSH2 0x3FB PUSH2 0x43B JUMP JUMPDEST POP PUSH1 0x44 CALLDATALOAD PUSH1 0x1 PUSH1 0x1 PUSH1 0x40 SHL SUB DUP2 GT PUSH2 0x11D JUMPI PUSH2 0x41B SWAP1 CALLDATASIZE SWAP1 PUSH1 0x4 ADD PUSH2 0x525 JUMP JUMPDEST POP PUSH1 0x40 MLOAD PUSH1 0x40 DUP2 MSTORE DUP1 PUSH2 0x430 PUSH1 0x40 DUP3 ADD PUSH2 0x543 JUMP JUMPDEST PUSH1 0x0 PUSH1 0x20 DUP4 ADD MSTORE SUB SWAP1 RETURN JUMPDEST PUSH1 0x4 CALLDATALOAD SWAP1 PUSH1 0x1 PUSH1 0x1 PUSH1 0xA0 SHL SUB DUP3 AND DUP3 SUB PUSH2 0x11D JUMPI JUMP JUMPDEST PUSH1 0x24 CALLDATALOAD SWAP1 PUSH1 0x1 PUSH1 0x1 PUSH1 0xA0 SHL SUB DUP3 AND DUP3 SUB PUSH2 0x11D JUMPI JUMP JUMPDEST PUSH1 0x44 CALLDATALOAD SWAP1 PUSH1 0x1 PUSH1 0x1 PUSH1 0xA0 SHL SUB DUP3 AND DUP3 SUB PUSH2 0x11D JUMPI JUMP JUMPDEST PUSH1 0x64 CALLDATALOAD SWAP1 PUSH1 0x1 PUSH1 0x1 PUSH1 0xA0 SHL SUB DUP3 AND DUP3 SUB PUSH2 0x11D JUMPI JUMP JUMPDEST PUSH1 0x84 CALLDATALOAD SWAP1 PUSH1 0x1 PUSH1 0x1 PUSH1 0xA0 SHL SUB DUP3 AND DUP3 SUB PUSH2 0x11D JUMPI JUMP JUMPDEST PUSH1 0x40 MLOAD SWAP2 SWAP1 PUSH1 0x1F ADD PUSH1 0x1F NOT AND DUP3 ADD PUSH1 0x1 PUSH1 0x1 PUSH1 0x40 SHL SUB DUP2 GT DUP4 DUP3 LT OR PUSH2 0x4CE JUMPI PUSH1 0x40 MSTORE JUMP JUMPDEST PUSH4 0x4E487B71 PUSH1 0xE0 SHL PUSH1 0x0 MSTORE PUSH1 0x41 PUSH1 0x4 MSTORE PUSH1 0x24 PUSH1 0x0 REVERT JUMPDEST SWAP3 SWAP2 SWAP3 PUSH1 0x1 PUSH1 0x1 PUSH1 0x40 SHL SUB DUP3 GT PUSH2 0x4CE JUMPI PUSH2 0x508 PUSH1 0x1F DUP4 ADD PUSH1 0x1F NOT AND PUSH1 0x20 ADD PUSH2 0x4A9 JUMP JUMPDEST SWAP4 DUP3 DUP6 MSTORE DUP3 DUP3 ADD GT PUSH2 0x11D JUMPI DUP2 PUSH1 0x0 SWAP3 PUSH1 0x20 SWAP3 DUP4 DUP8 ADD CALLDATACOPY DUP5 ADD ADD MSTORE JUMP JUMPDEST SWAP1 DUP1 PUSH1 0x1F DUP4 ADD SLT ISZERO PUSH2 0x11D JUMPI DUP2 PUSH1 0x20 PUSH2 0x540 SWAP4 CALLDATALOAD SWAP2 ADD PUSH2 0x4E4 JUMP JUMPDEST SWAP1 JUMP JUMPDEST SWAP1 PUSH1 0x60 MLOAD SWAP2 DUP3 DUP2 MSTORE PUSH1 0x0 JUMPDEST DUP4 DUP2 LT PUSH2 0x56E JUMPI POP DUP3 PUSH1 0x0 PUSH1 0x20 DUP1 SWAP5 SWAP6 DUP5 ADD ADD MSTORE PUSH1 0x1F DUP1 NOT SWAP2 ADD AND ADD ADD SWAP1 JUMP JUMPDEST DUP1 PUSH1 0x80 PUSH1 0x20 SWAP3 ADD MLOAD DUP3 DUP3 DUP6 ADD ADD MSTORE ADD PUSH2 0x54E JUMP JUMPDEST PUSH1 0x1 PUSH1 0x1 PUSH1 0x40 SHL SUB DUP2 GT PUSH2 0x4CE JUMPI PUSH1 0x5 SHL PUSH1 0x20 ADD SWAP1 JUMP JUMPDEST DUP2 PUSH1 0x1F DUP3 ADD SLT ISZERO PUSH2 0x11D JUMPI DUP1 CALLDATALOAD SWAP1 PUSH2 0x5B3 PUSH2 0x281 DUP4 PUSH2 0x582 JUMP JUMPDEST SWAP3 PUSH1 0x20 DUP1 DUP6 DUP6 DUP2 MSTORE ADD SWAP4 PUSH1 0x6 SHL DUP4 ADD ADD SWAP2 DUP2 DUP4 GT PUSH2 0x11D JUMPI PUSH1 0x20 ADD SWAP3 JUMPDEST DUP3 DUP5 LT PUSH2 0x5DE JUMPI POP POP POP POP SWAP1 JUMP JUMPDEST PUSH1 0x40 DUP5 DUP4 SUB SLT PUSH2 0x11D JUMPI PUSH1 0x40 MLOAD SWAP1 PUSH1 0x40 DUP3 ADD DUP3 DUP2 LT PUSH1 0x1 PUSH1 0x1 PUSH1 0x40 SHL SUB DUP3 GT OR PUSH2 0x4CE JUMPI PUSH1 0x40 MSTORE DUP5 CALLDATALOAD SWAP1 PUSH1 0x1 PUSH1 0x1 PUSH1 0xA0 SHL SUB DUP3 AND DUP3 SUB PUSH2 0x11D JUMPI DUP3 PUSH1 0x20 SWAP3 PUSH1 0x40 SWAP5 MSTORE DUP3 DUP8 ADD CALLDATALOAD DUP4 DUP3 ADD MSTORE DUP2 MSTORE ADD SWAP4 ADD SWAP3 PUSH2 0x5D0 JUMP JUMPDEST PUSH1 0x24 CALLDATALOAD SWAP1 DUP2 ISZERO ISZERO DUP3 SUB PUSH2 0x11D JUMPI JUMP JUMPDEST PUSH1 0x4 CALLDATALOAD SWAP1 DUP2 ISZERO ISZERO DUP3 SUB PUSH2 0x11D JUMPI JUMP JUMPDEST SWAP2 DUP2 PUSH1 0x1F DUP5 ADD SLT ISZERO PUSH2 0x11D JUMPI DUP3 CALLDATALOAD SWAP2 PUSH1 0x1 PUSH1 0x1 PUSH1 0x40 SHL SUB DUP4 GT PUSH2 0x11D JUMPI PUSH1 0x20 DUP4 DUP2 DUP7 ADD SWAP6 ADD ADD GT PUSH2 0x11D JUMPI JUMP INVALID LOG2 PUSH5 0x6970667358 0x22 SLT KECCAK256 0xAB TIMESTAMP 0xDF 0x28 DUP14 0xB8 DUP6 PUSH14 0xBC9140E7CA40EAD038C4F87B8CFF 0xBD PUSH28 0xF84CBFC2EBB6515364736F6C634300081C0033000000000000000000 "},"methodIdentifiers":{"precompileAsyncCall(bool,uint8,address,address,address,uint256,(address,uint256)[],bytes)":"f6975653","precompileAwaitCall(address,uint256,bytes)":"03cfdb76","precompileConfigParam(bool,string,bytes)":"9ef8d0fa","precompileGetGasPrice(uint256)":"a6c085bf","precompileGetPoseidonHash(bytes)":"78312c6b","precompileGetTokenBalance(address,address)":"9614ddaf","precompileGetTransactionTokens()":"802db0e0","precompileLog(string,int256[])":"8c4b0036","precompileManageToken(uint256,bool)":"59777fc2","precompileSendRequest(address,(address,uint256)[],uint256,bytes,bytes)":"40225e94","precompileSendTokens(address,(address,uint256)[])":"d6ff6d2e"}}}}}