{"contracts/Oracle.sol":{"Oracle":{"abi":[{"inputs":[{"internalType":"TokenId","name":"token","type":"address"}],"name":"getPrice","outputs":[{"internalType":"uint256","name":"","type":"uint256"}],"stateMutability":"view","type":"function"},{"inputs":[{"internalType":"TokenId","name":"","type":"address"}],"name":"rates","outputs":[{"internalType":"uint256","name":"","type":"uint256"}],"stateMutability":"view","type":"function"},{"inputs":[{"internalType":"TokenId","name":"token","type":"address"},{"internalType":"uint256","name":"price","type":"uint256"}],"name":"setPrice","outputs":[],"stateMutability":"nonpayable","type":"function"}],"evm":{"bytecode":{"linkReferences":{},"object":"6080806040523460145760f2908161001a8239f35b600080fdfe60806040526004361015601157600080fd5b60003560e01c8062e4768b14607357806341976e091460385763a8734f0b14603857600080fd5b34606e576020366003190112606e576001600160a01b03605560a7565b1660005260006020526020604060002054604051908152f35b600080fd5b34606e576040366003190112606e576001600160a01b03609060a7565b166000526000602052602435604060002055600080f35b600435906001600160a01b0382168203606e5756fea26469706673582212205aeefa095356d9de3b828f7cf20efc2ac6eafa74dcb2d7df465271236d7c608a64736f6c634300081c0033","opcodes":"PUSH1 0x80 DUP1 PUSH1 0x40 MSTORE CALLVALUE PUSH1 0x14 JUMPI PUSH1 0xF2 SWAP1 DUP2 PUSH2 0x1A DUP3 CODECOPY RETURN JUMPDEST PUSH1 0x0 DUP1 REVERT INVALID PUSH1 0x80 PUSH1 0x40 MSTORE PUSH1 0x4 CALLDATASIZE LT ISZERO PUSH1 0x11 JUMPI PUSH1 0x0 DUP1 REVERT JUMPDEST PUSH1 0x0 CALLDATALOAD PUSH1 0xE0 SHR DUP1 PUSH3 0xE4768B EQ PUSH1 0x73 JUMPI DUP1 PUSH4 0x41976E09 EQ PUSH1 0x38 JUMPI PUSH4 0xA8734F0B EQ PUSH1 0x38 JUMPI PUSH1 0x0 DUP1 REVERT JUMPDEST CALLVALUE PUSH1 0x6E JUMPI PUSH1 0x20 CALLDATASIZE PUSH1 0x3 NOT ADD SLT PUSH1 0x6E JUMPI PUSH1 0x1 PUSH1 0x1 PUSH1 0xA0 SHL SUB PUSH1 0x55 PUSH1 0xA7 JUMP JUMPDEST AND PUSH1 0x0 MSTORE PUSH1 0x0 PUSH1 0x20 MSTORE PUSH1 0x20 PUSH1 0x40 PUSH1 0x0 KECCAK256 SLOAD PUSH1 0x40 MLOAD SWAP1 DUP2 MSTORE RETURN JUMPDEST PUSH1 0x0 DUP1 REVERT JUMPDEST CALLVALUE PUSH1 0x6E JUMPI PUSH1 0x40 CALLDATASIZE PUSH1 0x3 NOT ADD SLT PUSH1 0x6E JUMPI PUSH1 0x1 PUSH1 0x1 PUSH1 0xA0 SHL SUB PUSH1 0x90 PUSH1 0xA7 JUMP JUMPDEST AND PUSH1 0x0 MSTORE PUSH1 0x0 PUSH1 0x20 MSTORE PUSH1 0x24 CALLDATALOAD PUSH1 0x40 PUSH1 0x0 KECCAK256 SSTORE PUSH1 0x0 DUP1 RETURN JUMPDEST PUSH1 0x4 CALLDATALOAD SWAP1 PUSH1 0x1 PUSH1 0x1 PUSH1 0xA0 SHL SUB DUP3 AND DUP3 SUB PUSH1 0x6E JUMPI JUMP INVALID LOG2 PUSH5 0x6970667358 0x22 SLT KECCAK256 GAS 0xEE STATICCALL MULMOD MSTORE8 JUMP 0xD9 0xDE EXTCODESIZE DUP3 DUP16 PUSH29 0xF20EFC2AC6EAFA74DCB2D7DF465271236D7C608A64736F6C634300081C STOP CALLER "},"methodIdentifiers":{"getPrice(address)":"41976e09","rates(address)":"a8734f0b","setPrice(address,uint256)":"00e4768b"}}}}}