{
  "_format": "hh-sol-artifact-1",
  "contractName": "__Precompile__",
  "sourceName": "@nilfoundation/smart-contracts/contracts/Nil.sol",
  "abi": [
    {
      "inputs": [
        {
          "internalType": "bool",
          "name": "",
          "type": "bool"
        },
        {
          "internalType": "uint8",
          "name": "",
          "type": "uint8"
        },
        {
          "internalType": "address",
          "name": "",
          "type": "address"
        },
        {
          "internalType": "address",
          "name": "",
          "type": "address"
        },
        {
          "internalType": "address",
          "name": "",
          "type": "address"
        },
        {
          "internalType": "uint256",
          "name": "",
          "type": "uint256"
        },
        {
          "components": [
            {
              "internalType": "TokenId",
              "name": "id",
              "type": "address"
            },
            {
              "internalType": "uint256",
              "name": "amount",
              "type": "uint256"
            }
          ],
          "internalType": "struct Nil.Token[]",
          "name": "",
          "type": "tuple[]"
        },
        {
          "internalType": "bytes",
          "name": "",
          "type": "bytes"
        }
      ],
      "name": "precompileAsyncCall",
      "outputs": [
        {
          "internalType": "bool",
          "name": "",
          "type": "bool"
        }
      ],
      "stateMutability": "payable",
      "type": "function"
    },
    {
      "inputs": [
        {
          "internalType": "address",
          "name": "",
          "type": "address"
        },
        {
          "internalType": "uint256",
          "name": "",
          "type": "uint256"
        },
        {
          "internalType": "bytes",
          "name": "",
          "type": "bytes"
        }
      ],
      "name": "precompileAwaitCall",
      "outputs": [
        {
          "internalType": "bytes",
          "name": "",
          "type": "bytes"
        },
        {
          "internalType": "bool",
          "name": "",
          "type": "bool"
        }
      ],
      "stateMutability": "payable",
      "type": "function"
    },
    {
      "inputs": [
        {
          "internalType": "bool",
          "name": "isSet",
          "type": "bool"
        },
        {
          "internalType": "string",
          "name": "name",
          "type": "string"
        },
        {
          "internalType": "bytes",
          "name": "data",
          "type": "bytes"
        }
      ],
      "name": "precompileConfigParam",
      "outputs": [
        {
          "internalType": "bytes",
          "name": "",
          "type": "bytes"
        }
      ],
      "stateMutability": "nonpayable",
      "type": "function"
    },
    {
      "inputs": [
        {
          "internalType": "uint256",
          "name": "id",
          "type": "uint256"
        }
      ],
      "name": "precompileGetGasPrice",
      "outputs": [
        {
          "internalType": "uint256",
          "name": "",
          "type": "uint256"
        }
      ],
      "stateMutability": "nonpayable",
      "type": "function"
    },
    {
      "inputs": [
        {
          "internalType": "bytes",
          "name": "data",
          "type": "bytes"
        }
      ],
      "name": "precompileGetPoseidonHash",
      "outputs": [
        {
          "internalType": "uint256",
          "name": "",
          "type": "uint256"
        }
      ],
      "stateMutability": "nonpayable",
      "type": "function"
    },
    {
      "inputs": [
        {
          "internalType": "TokenId",
          "name": "id",
          "type": "address"
        },
        {
          "internalType": "address",
          "name": "addr",
          "type": "address"
        }
      ],
      "name": "precompileGetTokenBalance",
      "outputs": [
        {
          "internalType": "uint256",
          "name": "",
          "type": "uint256"
        }
      ],
      "stateMutability": "view",
      "type": "function"
    },
    {
      "inputs": [],
      "name": "precompileGetTransactionTokens",
      "outputs": [
        {
          "components": [
            {
              "internalType": "TokenId",
              "name": "id",
              "type": "address"
            },
            {
              "internalType": "uint256",
              "name": "amount",
              "type": "uint256"
            }
          ],
          "internalType": "struct Nil.Token[]",
          "name": "",
          "type": "tuple[]"
        }
      ],
      "stateMutability": "nonpayable",
      "type": "function"
    },
    {
      "inputs": [
        {
          "internalType": "string",
          "name": "transaction",
          "type": "string"
        },
        {
          "internalType": "int256[]",
          "name": "data",
          "type": "int256[]"
        }
      ],
      "name": "precompileLog",
      "outputs": [
        {
          "internalType": "bool",
          "name": "",
          "type": "bool"
        }
      ],
      "stateMutability": "nonpayable",
      "type": "function"
    },
    {
      "inputs": [
        {
          "internalType": "uint256",
          "name": "amount",
          "type": "uint256"
        },
        {
          "internalType": "bool",
          "name": "mint",
          "type": "bool"
        }
      ],
      "name": "precompileManageToken",
      "outputs": [
        {
          "internalType": "bool",
          "name": "",
          "type": "bool"
        }
      ],
      "stateMutability": "nonpayable",
      "type": "function"
    },
    {
      "inputs": [
        {
          "internalType": "address",
          "name": "",
          "type": "address"
        },
        {
          "components": [
            {
              "internalType": "TokenId",
              "name": "id",
              "type": "address"
            },
            {
              "internalType": "uint256",
              "name": "amount",
              "type": "uint256"
            }
          ],
          "internalType": "struct Nil.Token[]",
          "name": "",
          "type": "tuple[]"
        },
        {
          "internalType": "uint256",
          "name": "",
          "type": "uint256"
        },
        {
          "internalType": "bytes",
          "name": "",
          "type": "bytes"
        },
        {
          "internalType": "bytes",
          "name": "",
          "type": "bytes"
        }
      ],
      "name": "precompileSendRequest",
      "outputs": [
        {
          "internalType": "bool",
          "name": "",
          "type": "bool"
        }
      ],
      "stateMutability": "payable",
      "type": "function"
    },
    {
      "inputs": [
        {
          "internalType": "address",
          "name": "",
          "type": "address"
        },
        {
          "components": [
            {
              "internalType": "TokenId",
              "name": "id",
              "type": "address"
            },
            {
              "internalType": "uint256",
              "name": "amount",
              "type": "uint256"
            }
          ],
          "internalType": "struct Nil.Token[]",
          "name": "",
          "type": "tuple[]"
        }
      ],
      "name": "precompileSendTokens",
      "outputs": [
        {
          "internalType": "bool",
          "name": "",
          "type": "bool"
        }
      ],
      "stateMutability": "nonpayable",
      "type": "function"
    }
  ],
  "bytecode": "0x608080604052346015576106b4908161001b8239f35b600080fdfe6080604052600436101561001257600080fd5b60003560e01c806303cfdb76146103e757806340225e941461037357806359777fc21461035a57806378312c6b1461032a578063802db0e0146102c05780638c4b00361461020d5780639614ddaf146101eb5780639ef8d0fa14610177578063a6c085bf1461015b578063d6ff6d2e146101225763f69756531461009557600080fd5b61010036600319011261011d576100aa610642565b5060243560ff81160361011d576100bf610467565b506100c861047d565b506100d1610493565b5060c4356001600160401b03811161011d576100f1903690600401610599565b5060e4356001600160401b03811161011d57610111903690600401610525565b50602060405160008152f35b600080fd5b3461011d57604036600319011261011d5761013b61043b565b506024356001600160401b03811161011d57610111903690600401610599565b3461011d57602036600319011261011d57602060405160008152f35b3461011d57606036600319011261011d57610190610642565b506024356001600160401b03811161011d576101b0903690600401610651565b50506044356001600160401b03811161011d576101d1903690600401610651565b505060405160208152806101e760208201610543565b0390f35b3461011d57604036600319011261011d5761020461043b565b50610111610451565b3461011d57604036600319011261011d576004356001600160401b03811161011d573660238201121561011d5761024e9036906024816004013591016104e4565b506024356001600160401b03811161011d573660238201121561011d578060040135906024602061028661028185610582565b6104a9565b848152019260051b8201019036821161011d57602401915b8183106102b057602060405160008152f35b823581526020928301920161029e565b3461011d57600036600319011261011d57604051806020810160208252606051809152604082019060809060005b8181106102fc575050500390f35b825180516001600160a01b0316855260209081015181860152869550604090940193909201916001016102ee565b3461011d57602036600319011261011d576004356001600160401b03811161011d57610111903690600401610525565b3461011d57604036600319011261011d57610111610633565b60a036600319011261011d5761038761043b565b506024356001600160401b03811161011d576103a7903690600401610599565b506064356001600160401b03811161011d576103c7903690600401610525565b506084356001600160401b03811161011d57610111903690600401610525565b606036600319011261011d576103fb61043b565b506044356001600160401b03811161011d5761041b903690600401610525565b50604051604081528061043060408201610543565b600060208301520390f35b600435906001600160a01b038216820361011d57565b602435906001600160a01b038216820361011d57565b604435906001600160a01b038216820361011d57565b606435906001600160a01b038216820361011d57565b608435906001600160a01b038216820361011d57565b6040519190601f01601f191682016001600160401b038111838210176104ce57604052565b634e487b7160e01b600052604160045260246000fd5b9291926001600160401b0382116104ce57610508601f8301601f19166020016104a9565b938285528282011161011d57816000926020928387013784010152565b9080601f8301121561011d57816020610540933591016104e4565b90565b906060519182815260005b83811061056e5750826000602080949584010152601f8019910116010190565b80608060209201518282850101520161054e565b6001600160401b0381116104ce5760051b60200190565b81601f8201121561011d578035906105b361028183610582565b9260208085858152019360061b8301019181831161011d57602001925b8284106105de575050505090565b60408483031261011d5760405190604082018281106001600160401b038211176104ce576040528435906001600160a01b038216820361011d57826020926040945282870135838201528152019301926105d0565b60243590811515820361011d57565b60043590811515820361011d57565b9181601f8401121561011d578235916001600160401b03831161011d576020838186019501011161011d5756fea2646970667358221220ab42df288db8856dbc9140e7ca40ead038c4f87b8cffbd7bf84cbfc2ebb6515364736f6c634300081c0033",
  "linkReferences": {},
  "deployedLinkReferences": {}
}