{
  "_format": "hh-sol-artifact-1",
  "contractName": "NilConfigAbi",
  "sourceName": "@nilfoundation/smart-contracts/contracts/Nil.sol",
  "abi": [
    {
      "inputs": [
        {
          "components": [
            {
              "components": [
                {
                  "internalType": "uint8[33]",
                  "name": "PublicKey",
                  "type": "uint8[33]"
                },
                {
                  "internalType": "address",
                  "name": "WithdrawalAddress",
                  "type": "address"
                }
              ],
              "internalType": "struct Nil.ValidatorInfo[]",
              "name": "list",
              "type": "tuple[]"
            }
          ],
          "internalType": "struct Nil.ParamValidators",
          "name": "",
          "type": "tuple"
        }
      ],
      "name": "curr_validators",
      "outputs": [],
      "stateMutability": "nonpayable",
      "type": "function"
    },
    {
      "inputs": [
        {
          "components": [
            {
              "internalType": "uint256",
              "name": "gasPriceScale",
              "type": "uint256"
            },
            {
              "internalType": "uint256[]",
              "name": "shards",
              "type": "uint256[]"
            }
          ],
          "internalType": "struct Nil.ParamGasPrice",
          "name": "",
          "type": "tuple"
        }
      ],
      "name": "gas_price",
      "outputs": [],
      "stateMutability": "nonpayable",
      "type": "function"
    }
  ],
  "bytecode": "0x608080604052346015576102e6908161001b8239f35b600080fdfe6080604052600436101561001257600080fd5b60003560e01c8063978384d1146100f15763e52108f91461003257600080fd5b346100ec5760203660031901126100ec5760043567ffffffffffffffff81116100ec57604060031982360301126100ec5761006b610252565b908060040135825260248101359067ffffffffffffffff82116100ec570190366023830112156100ec576004820135916100ac6100a784610298565b610272565b92602060048186848152019260051b84010101913683116100ec57602401905b8282106100dc5760208401859052005b81358152602091820191016100cc565b600080fd5b346100ec5760203660031901126100ec5760043567ffffffffffffffff81116100ec57602060031982360301126100ec57604051906020820182811067ffffffffffffffff82111761023c5760405280600401359067ffffffffffffffff82116100ec570190366023830112156100ec5760048201356101736100a782610298565b9260206004610440828786815201940283010101903682116100ec57602401915b8183106101a15750505052005b610440833603126100ec576101b4610252565b9036601f850112156100ec57604051610420810181811067ffffffffffffffff82111761023c57604052806104208601913683116100ec5786905b838210610222575050835235906001600160a01b03821682036100ec578260209283610440950152815201920191610194565b813560ff811681036100ec578152602091820191016101ef565b634e487b7160e01b600052604160045260246000fd5b604051906040820182811067ffffffffffffffff82111761023c57604052565b6040519190601f01601f1916820167ffffffffffffffff81118382101761023c57604052565b67ffffffffffffffff811161023c5760051b6020019056fea2646970667358221220de34a4264d612b8581fb95f30d06b59679e1b3558fe1177cfdb313384bf5fd7064736f6c634300081c0033",
  "linkReferences": {},
  "deployedLinkReferences": {}
}