{
  "_format": "hh-sol-artifact-1",
  "contractName": "Oracle",
  "sourceName": "contracts/Oracle.sol",
  "abi": [
    {
      "inputs": [
        {
          "internalType": "TokenId",
          "name": "token",
          "type": "address"
        }
      ],
      "name": "getPrice",
      "outputs": [
        {
          "internalType": "uint256",
          "name": "",
          "type": "uint256"
        }
      ],
      "stateMutability": "view",
      "type": "function"
    },
    {
      "inputs": [
        {
          "internalType": "TokenId",
          "name": "",
          "type": "address"
        }
      ],
      "name": "rates",
      "outputs": [
        {
          "internalType": "uint256",
          "name": "",
          "type": "uint256"
        }
      ],
      "stateMutability": "view",
      "type": "function"
    },
    {
      "inputs": [
        {
          "internalType": "TokenId",
          "name": "token",
          "type": "address"
        },
        {
          "internalType": "uint256",
          "name": "price",
          "type": "uint256"
        }
      ],
      "name": "setPrice",
      "outputs": [],
      "stateMutability": "nonpayable",
      "type": "function"
    }
  ],
  "bytecode": "0x6080806040523460145760f2908161001a8239f35b600080fdfe60806040526004361015601157600080fd5b60003560e01c8062e4768b14607357806341976e091460385763a8734f0b14603857600080fd5b34606e576020366003190112606e576001600160a01b03605560a7565b1660005260006020526020604060002054604051908152f35b600080fd5b34606e576040366003190112606e576001600160a01b03609060a7565b166000526000602052602435604060002055600080f35b600435906001600160a01b0382168203606e5756fea26469706673582212205aeefa095356d9de3b828f7cf20efc2ac6eafa74dcb2d7df465271236d7c608a64736f6c634300081c0033",
  "linkReferences": {},
  "deployedLinkReferences": {}
}